:1000000000308A004A280000FF00030E8301A1008F
:100010000A08A0008A010408A2007708A300780853
:10002000A4007908A5007A08A600831383128C30F7
:100030008400801E1D288C1A2E2822088400230884
:10004000F7002408F8002508F9002608FA0020081F
:100050008A00210E8300FF0E7F0E09008A110A120A
:1000600031288C1E31281A08A7002708313A0319B5
:100070003D28033A031942284628831606108312A6
:100080000614462883160610831206108C128A1155
:100090000A121D2803081F39830081308316990036
:1000A000A630980090308312980083161F149F1476
:1000B0001F159F1107309C0083138C16C0308312CC
:1000C0008B04003083168600FF30850000308600E8
:1000D000831286010518722831300C1E6D28990094
:1000E000051C702885187A2832300C1E7528990056
:0800F000851C78286A286300D2
:02400E00733FFE
:00000001FF
;PIC16F877A
;CRC=3AA5  CREATED="14-Nov-22 16:41"
