:1000000008308A0000280000FF00030E8301A100D1
:100010000A08A0008A010408A2007708A300780853
:10002000A4007908A5007A08A60003170D08031399
:10003000A70003170F080313A80003170C080313E6
:10004000A90003170E080313AA00831383128B1D44
:100050002B280B1860280B1E2F288B1863288C3038
:100060008400801E35288C1A66288C308400001C81
:100070003B280C1869288B1E3F280B196C28220876
:1000800084002308F7002408F8002508F900260852
:10009000FA00270803178D000313280803178F00A1
:1000A0000313290803178C0003132A0803178E0073
:1000B000031320088A00210E8300FF0E7F0E090023
:1000C0008A110A128F288A110A122F298A110A12FC
:1000D000D1288A110A125C298A110A1288294B0830
:1000E000023C0319C90A4B08033C031D7C2801305C
:1000F00049024A02031DCA0A08004B08023C031DBC
:10010000862801304A074902031DC9034B08033CF6
:10011000031D8E284A08003C031CCA030800060879
:1001200000000B10861B9B28861F9428CB0A4B08C7
:10013000033C031CCB01061AAE28061E9D28CB08E3
:100140000319A4284B0BA6280130AB064B08023C30
:100150000319AD284B08033C03196F20861AC128E8
:10016000861EB028CB080319B7284B0BB9280230DC
:10017000AB064B08023C0319C0284B08033C03198B
:100180007D20061BCD28061FC3280130CC064C1845
:10019000CD2883160910831209100B108A110A1238
:1001A0003F288C1ED1281A08AF002F08733A031974
:1001B0000429073A03190A29133A03190C29563A54
:1001C00003190E29033A03191029013A03191229B8
:1001D000073A03191429013A03191629033A031996
:1001E0001829013A031920290F3A03192229013A43
:1001F00003192429093A03192629513A03192829F0
:10020000033A03192A292B29CB0A4B08033C031C68
:10021000CB012B296F202B297D202B292B142B2957
:100220002B102B29AB142B29AB102B294C142B2969
:100230004C10091C1F2983160910831209102B2941
:100240002B152B292B112B29AB152B29AB112B2966
:100250002B162B292B128C128A110A123F288B1075
:10026000861841290B124C1C3D2983160910831254
:100270000914AE01AD018B16810106193D29C80A8A
:100280005729061957290B124C1C4E2983160910A1
:1002900083120914AE01AD018B16810186184E2917
:1002A0004808013C031C5629C8015729C8030B16EE
:1002B0008B108A110A123F280C10051D612985191F
:1002C0006329AB166429AB12051A6829AB17692993
:1002D000AB13851A6D292B176E292B130718742958
:1002E000071C70290430AB0687187A29871C7629E9
:1002F0000830AB0607198029071D7C291030AB0692
:100300008E018F018E0100000C108A110A123F2805
:100310000B11AD0A0319AE0A2D08FC3C031D9F29E1
:100320002E08083C031D9F29AE01AD014C1C9F29DE
:10033000091C9F2983160910831209108B12810151
:100340000B118A110A123F28CD3C2028F237EA32DD
:10035000633AA0190000C437A0206D1DA0127516C5
:10036000A53A00004E34E9327410C4373A10A53A69
:10037000AC127500D3374E1D25197500C2306F10B1
:10038000C437EE33BA2766332000C2306F10C4374B
:10039000EE33BA276E100001541DA012B23A2C1091
:1003A000441DA012B23A0001A0266F32651DA012B2
:1003B0007500D530723A3A002010C4252027E83461
:1003C000653A20226F10C23074004E34E932742234
:1003D0006F22EB2FC230741DA0127500541DA012A5
:1003E000B23A2C10441DA012B23A0001A0266F327E
:1003F000651DA01275002010C4252027E834653A39
:1004000020226F10D43074004E34E93274226F22EF
:10041000EB2FD430741DA0127500541DA012B23AF7
:100420002C10441DA012B23A0001A0266F32651DA7
:10043000A0127500633084008313000803192D2A6D
:100440000630F800F701F70B232AF80B222A7B303D
:10045000F700F70B292A800B202A08005C18322AA3
:100460008712332A8716AC122C0883168700831252
:10047000DC183C2A07123D2A07162C122C0883167A
:10048000870083125C19462A8811472A881583162B
:1004900088118312DC194E2A08114F2A0815831679
:1004A0000811000083120816831608120330F700A3
:1004B000F70B582A831208128316081283120800B9
:1004C000DD01AC162C088316870000308312871AD2
:1004D0000130DD042C162C088316870000308312AF
:1004E000071A0130F7000310F70D7708DD048316B3
:1004F00088150030831288190130F700F70DF70DC9
:10050000FC30F7057708DD048316081500308312E8
:1005100008190130F700F70DF70DF70DF830F70562
:100520007708DD045D08F800080083160812081338
:100530008812831208138316081387160716881566
:100540000815831288168316881200008312081675
:10055000831608120000831260227808DC0008125B
:100560008316081200008312081683160812B82A90
:10057000B92A0000831260227808DB000812831673
:1005800008128312AC122C088316870083122C12D7
:100590002C08831687008811081183125C0EF7005F
:1005A000F030F70577085B04F8007808DB00DB1F04
:1005B000DB2A83169D2AD908031DE02A0813E12AA5
:1005C00008178316081300008312881283168812F6
:1005D0000000831208128316081283125A0EDB00E1
:1005E0000F30DB055B08DC002E225A080F39DB00D8
:1005F000DC002E2208002830D1000C30D20001305F
:10060000D3000630D4000812831608128312081390
:100610008316081383128812831688128312AC1271
:100620002C088316870083122C122C08831687004F
:10063000881108110812081388120F308312E30082
:100640001A220130D0005008033C031C2F2B03302A
:10065000DC002E220530E3001A22D00A232B0230C0
:10066000DC002E220530E3001A22D0015008033CA2
:10067000031C462B51305007840083130008D5001B
:10068000D9015508DA009522D00A362B0800560BFE
:100690004A2B4D2B4030D7004E2BD701013055024D
:1006A000D70757088038D800D9015808DA009522B2
:1006B000080054080C3A0319642B063A03196C2BF2
:1006C000023A0319722B772BD9010130DA009522F7
:1006D0000230E3001A227C2B0130D5000230D60014
:1006E00047237C2BD9011030DA0095227C2B013076
:1006F000D9005408DA00952208000B08D0008B13AB
:10070000831603178C170C140000000083120313C8
:10071000D01B8B1703170C087F390319D12B031338
:10072000D00003170D080313D10003170F0803139C
:10073000D2005008D4005923510803178D00031329
:10074000520803178F0003130B08D3008B13831673
:1007500003178C170C140000000083120313D31B23
:100760008B1703170C0D0E0D7F390319D12B0313B3
:10077000D00003170D080313D10003170F0803134C
:10078000D2005008D4005923510803178D000313D9
:10079000520803178F008D0A03198F0A03137D2B4C
:1007A0000317031308000B08D1008B1383160317DC
:1007B0008C170C140000000083120313D11B8B173D
:1007C00003180A2C03170C087F390313D1000317F1
:1007D0000D080313D20003170F080313D3005108A9
:1007E000D4005923520803178D000313530803172D
:1007F0008F0003130B08D4008B13831603178C1779
:100800000C140000000083120313D41B8B17D00BB1
:100810000A2C292C03170C0D0E0D7F390313D10060
:1008200003170D080313D20003170F080313D30097
:100830005108D4005923520803178D00031353089D
:1008400003178F008D0A03198F0A03100313D00BAF
:10085000D32B08005308F80152020318322C520817
:10086000F7003E2CF7010830D400D20DF70D5308E5
:1008700077020318F700F80DD40B352C0800780820
:100880005008D2006430D3002A247708D0007808BA
:100890003030031D522CD11C592CD119592C511A0E
:1008A0002030552CD11151125114F8077808D4007A
:1008B00059235008D2000A30D3002A247708D000E8
:1008C00078083030031D6A2CD1196E2C511C6E2C07
:1008D000511A2030F8077808D40059233030D00757
:1008E0005008D40059230800C80803197E2C2B1C7B
:1008F0007E2C8316081083120814822C831608108D
:10090000831208108A150A129329C80803199E2C0D
:10091000AB1C9E2C49083002031C902C0130CD00EA
:1009200030084A020318CD014D08F800F8080319F1
:100930009E2C8316881083128814A22C831688108C
:10094000831288108A150A1296292B1FA92C4C187D
:10095000AB2CAB1EB02C8316091183120915B42CD5
:1009600083160911831209118A150A129929CB08D5
:10097000031DCB2C2B1FC32C2B1DC32C83168813BC
:1009800083128817CB2C2B1FC72C2B19CB2C83162B
:100990008813831288134B0BDA2C2B1DD42C83164F
:1009A000881383128817DA2C2B19DA2C83168813F4
:1009B000831288138A150A129C29AB19E12CAB1EED
:1009C000E82CAC112C088316870083128715EE2CB7
:1009D000AC112C0883168700831287118A150A121E
:1009E0009F29CB08031D052DAB1FFD2C2B1EFD2CB5
:1009F0008316891083128914052DAB1F012D2B1A24
:100A0000052D83168910831289104B0B142D2B1E74
:100A10000E2D8316891083128914142D2B1A142D70
:100A200083168910831289108A150A12A2294E088A
:100A3000840083134F18831754088000840A8001B0
:100A4000CE0A0319CF0A080078085008D200643093
:100A5000D3002A247708D00078083030031D372DC2
:100A6000D11C3E2DD1193E2D511A20303A2DD111D5
:100A700051125114F8077808D40017255008D200F5
:100A80000A30D3002A247708D00078083030031DBC
:100A90004F2DD119532D511C532D511A2030F807C9
:100AA0007808D40017253030D0075008D400172517
:100AB00008000B08D1008B13831603178C170C1436
:100AC0000000000083120313D11B8B170318902D15
:100AD00003170C087F390313D10003170D08031304
:100AE000D20003170F080313D3005108D4001725B1
:100AF000520803178D000313530803178F000313C5
:100B00000B08D4008B13831603178C170C140000EA
:100B1000000083120313D41B8B17D00B902DAF2D25
:100B200003170C0D0E0D7F390313D10003170D08A9
:100B30000313D20003170F080313D3005108D40086
:100B40001725520803178D000313530803178F004E
:100B50008D0A03198F0A03100313D00B592D0800B7
:100B600080080319C52DD1010408D0005110831B42
:100B700051140008D40059235008840083135118DD
:0C0B80008317840A0319850AB02D0800B1
:1010000003081F3983002B14AB142B15AB112B16BF
:10101000AB122B13AB13813083169900A6309800C6
:10102000903083129800FF30AC00AE01AD01C801D2
:101030001630C9001230CA00CB014C100130CD006F
:10104000CF01CE0183161F149F141F159F11073067
:101050009C008313871107128712FF308600081047
:101060008810081188110812881208138813831237
:1010700088018316850009108910091183128901DE
:101080008A11FB228A150C30D4008A1159238A1543
:101090000130D500D6008A1147238A15A4300317E2
:1010A0008D0001308F008A1103137D238A150430CF
:1010B000D000AF30E3008A111A228A15D00B5928CC
:1010C0000C30D4008A1159238A1583168C16C0302F
:1010D00083128B04060800000B108B158B100B1667
:1010E000831601130C14B530831290008E018F010A
:1010F0008E01000083160108C03907388100831271
:1011000081018A11FB228A15CB08031989284B0B10
:10111000092A0C30D4008A1159238A15D301D4012D
:10112000D501D601D701831605108312051463304B
:10113000F700F70B99289C2805101930E3008A1155
:101140001A228A150514831605146330F700F70B6D
:10115000A728AA288312051CB1280030F80001290D
:10116000B328051CB1286330F700F70BB528B82861
:101170000518BE280030F8000129C0280518BE282F
:10118000D9015908043C031CEB28D8015808073C36
:10119000031CE928051CCA285330F700F70BCE289A
:1011A000051CE72853305907840083135808073C6F
:1011B000F8000130F700F8080319E2280310F70DD2
:1011C000F80BDE287708000480000518E528D80A07
:1011D000C628D90AC1285408530755075607DA000C
:1011E00057085A020319F7280030F800012955085A
:1011F000B0005608B1005308B2005408B3000130E3
:10120000F8000130D500D6008A1147238A15AB308B
:1012100003178D0001308F00031007300313D00037
:101220008A11D3238A153208D0001B30D1008A11CD
:101230003F248A152C30D4008A1159238A1533088B
:10124000D0001B30D1008A113F248A152530D400EC
:101250008A1159238A150130D5000230D6008A112F
:1012600047238A15B23003178D0001308F00031019
:101270000A300313D0008A11D3238A153008D00016
:101280001B30D1008A113F248A152C30D4008A11DA
:1012900059238A153108D0001B30D1008A113F2410
:1012A0008A15DF30D4008A1159238A154330D400BF
:1012B0008A1159238A150F30D5000130D6008A11C2
:1012C00047238A15BA3003178D0001308F000310B1
:1012D00004300313D0008A11D3238A154808D000A4
:1012E0001130D1008A113F248A154C1888291530F5
:1012F000D5000130D6008A1147238A15BE30031766
:101300008D0001308F008A1103137D238A159129E6
:10131000C53003178D0001308F008A1103137D2320
:101320008A158A11742C8A158A11852C8A158A11BE
:10133000A52C8A158A11B72C8A158A11DD2C8A15DD
:101340008A11F12C8A151530D5000230D6008A1189
:1013500047238A15CF013430CE005430D4008A118F
:1013600017258A153A30D4008A1117258A1520309E
:10137000D4008A1117258A154908D0001130D100F0
:101380008A1124258A15CF3003178D0001308F0074
:10139000031005300313D0008A1159258A154A0815
:1013A000D0001130D1008A1124258A1534308400F0
:1013B00083138A11B0258A15D43003178D000130AC
:1013C0008F00031007300313D0008A11D3238A152E
:1013D0004B08D0001B30D1008A113F248A152330DE
:1013E000D5000130D6008A1147238A15D93003175A
:1013F0008D0001308F008A1103137D238A152F0879
:10140000D4008A1159238A156F30E3008A111A22F9
:101410008A154B08023C031D952A0C30D4008A1112
:1014200059238A150130D500D6008A1147238A1521
:10143000DC3003178D0001308F008A1103137D23E8
:101440008A150130D5000230D6008A1147238A154B
:10145000CF013430CE00E53003178D0001308F000E
:1014600003100F300313D0008A1159258A1549083B
:10147000D0001B30D1008A1124258A153430840015
:1014800083138A11B0258A151530D5000230D60095
:101490008A1147238A15CF013430CE005430D4004E
:1014A0008A1117258A153A30D4008A1117258A1512
:1014B0002030D4008A1117258A154908D000113030
:1014C000D1008A1124258A15F13003178D000130CF
:1014D0008F00031005300313D0008A1159258A1597
:1014E0004A08D0001130D1008A1124258A153430E1
:1014F000840083138A11B0258A15F63003178D00F6
:1015000001308F00031007300313D0008A11D3235A
:101510008A154B08D0001B30D1008A113F248A1550
:101520003230E3008A111A228A154B08033C031D4E
:10153000212B0C30D4008A1159238A150130D50093
:10154000D6008A1147238A15FB3003178D0001301E
:101550008F008A1103137D238A150130D5000230D4
:10156000D6008A1147238A15CF013430CE000430CB
:1015700003178D0002308F0003100F300313D000CB
:101580008A1159258A154A08D0001B30D1008A11CA
:1015900024258A153430840083138A11B0258A15D6
:1015A0001530D5000230D6008A1147238A15CF01A5
:1015B0003430CE005430D4008A1117258A153A30C1
:1015C000D4008A1117258A152030D4008A111725D6
:1015D0008A154908D0001130D1008A1124258A15B6
:1015E000103003178D0002308F00031005300313F5
:1015F000D0008A1159258A154A08D0001130D1002F
:101600008A1124258A153430840083138A11B02569
:101610008A15153003178D0002308F000310073034
:101620000313D0008A11D3238A154B08D0001B3036
:10163000D1008A113F248A153230E3008A111A2220
:061640008A1581286300F9
:02400E00323F3F
:00000001FF
;PIC16F877A
;CRC=6B27  CREATED="11-Jan-23 11:01"
