:1000000005308A00212D0000FF00030E8301A100AE
:100010000A08A0008A010408A2007708A300780853
:10002000A4007908A5007A08A60003170D08031399
:10003000A70003170F080313A80003170C080313E6
:10004000A90003170E080313AA00831383128B1D44
:100050002B280B1860280B1E2F288B1863288C3038
:100060008400801E35288C1A66288C308400001C81
:100070003B280C1869288B1E3F280B196C28220876
:1000800084002308F7002408F8002508F900260852
:10009000FA00270803178D000313280803178F00A1
:1000A0000313290803178C0003132A0803178E0073
:1000B000031320088A00210E8300FF0E7F0E090023
:1000C0008A110A1281288A110A12F3288A110A1247
:1000D000B3288A110A121F298A110A1246294A0BCB
:1000E0007328C80A77284A08023C0319C90A08007D
:1000F0004A0B7C28C80380284A08023C0319C9031C
:100100000800060800000B10861B8D28861F862815
:10011000CA0A4A08023C031CCA01061A9828061E8D
:100120008F28CA08031D97280230CB0698286F2015
:10013000861AA328861E9A28CA08031DA2280430FE
:10014000CB06A3287820061BAF28061FA528013060
:10015000CB064B18AF2883160910831209100B1019
:100160008A110A123F288C1EB3281A08AE002E08E6
:10017000733A0319D428073A0319DA28133A0319F2
:10018000DC28563A0319DE28033A0319E028013A1D
:100190000319E228073A0319E428013A0319E6286B
:1001A000033A0319E828EF28CA0A4A08023C031C4C
:1001B000CA01EF286F20EF287820EF28CB14EF2812
:1001C000CB10EF284B15EF284B11EF284B14EF28DD
:1001D0004B10091CEF2883160910831209108C128A
:1001E0008A110A123F28861804290B124B1C002979
:1001F0008316091083120914AD01AC018B1681011D
:1002000006190029C70A1A2906191A290B124B1CAC
:1002100011298316091083120914AD01AC018B1644
:100220008101861811294708013C031C1929C701BF
:100230001A29C7030B168B108A110A123F28051DB5
:10024000232985192529CB152629CB11051A2D29F6
:100250008316891083128914312983168910831219
:100260008910851A39294B1683168813831288172B
:100270003E294B1283168813831288138E018F0137
:100280008E0100000C108A110A123F28AC0A0319D3
:10029000AD0A2C08FC3C031D5C292D08083C031DFD
:1002A0005C29AD01AC014B1C5C29091C5C2983163F
:1002B0000910831209108B1281010B118A110A1285
:1002C0003F28CD3C2028F237EA32633AA0190000DB
:1002D000C437A0206D1DA0127516A53A00004E343B
:1002E000E9327410C4373A10A53AAC127500D3370E
:1002F0004E1D25197500C2306F10C437EE33BA2772
:1003000066332000C2306F10C437EE33BA276E1048
:100310000001C4253A10A53A2C10A53A2C10A53A94
:100320000000D530723A3A002010C4252027E83466
:10033000653A20226F10C23074004E34E9327422C4
:100340006F22EB2FC230741DA01275002010C4253F
:100350002027E834653A20226F10D43074004E34E0
:10036000E93274226F22EB2FD430741DA012750075
:1003700061308400831300080319CB290630F8008C
:10038000F701F70BC129F80BC0297B30F700F70BF9
:10039000C729800BBE2908005A18D0298712D129F5
:1003A0008716AB122B08831687008312DA18DA2916
:1003B0000712DB2907162B122B08831687008312DE
:1003C0005A19E4298811E5298815831688118312A2
:1003D000DA19EC290811ED29081583160811000017
:1003E00083120816831608120330F700F70BF6295C
:1003F000831208128316081283120800DB01AB1661
:100400002B088316870000308312871A0130DB0423
:100410002B162B088316870000308312071A013031
:10042000F7000310F70D7708DB04831688150030FA
:10043000831288190130F700F70DF70DFC30F7052E
:100440007708DB0483160815003083120819013081
:10045000F700F70DF70DF70DF830F7057708DB0417
:100460005B08F8000800831608120813881283122C
:1004700008138316081387160716881508158312A4
:100480008816831688120000831208168316081235
:1004900000008312FE217808DA0008128316081281
:1004A00000008312081683160812562A572A0000E5
:1004B0008312FE217808D9000812831608128312CD
:1004C000AB122B088316870083122B122B0883167E
:1004D00087008811081183125A0EF700F030F705D3
:1004E00077085904F8007808D900D91F792A8316AB
:1004F0003B2AD708031D7E2A08137F2A0817831674
:1005000008130000831288128316881200008312D9
:100510000812831608128312580ED9000F30D9051D
:100520005908DA00CC2158080F39D900DA00CC215B
:1005300008002830CF000C30D0000130D100063048
:10054000D2000812831608128312081383160813A8
:1005500083128812831688128312AB122B0883161B
:10056000870083122B122B0883168700881108112D
:100570000812081388120F308312E100B8210130ED
:10058000CE004E08033C031CCD2A0330DA00CC21F8
:100590000530E100B821CE0AC12A0230DA00CC21B0
:1005A0000530E100B821CE014E08033C031CE42ACB
:1005B0004F304E07840083130008D300D70153083F
:1005C000D8003322CE0AD42A8A110A125C2D540B89
:1005D000EA2AED2A4030D500EE2AD5010130530237
:1005E000D50755088038D600D7015608D8003322E1
:1005F000080052080C3A0319042B063A03190C2B75
:10060000023A0319122B172BD7010130D8003322DD
:100610000230E100B8211C2B0130D3000230D4009D
:10062000E7221C2BD7011030D80033221C2B0130BD
:10063000D7005208D800332208000B08CE008B13D5
:10064000831603178C170C14000000008312031389
:10065000CE1B8B1703170C087F390319712B03135B
:10066000CE0003170D080313CF0003170F08031361
:10067000D0004E08D200F9224F0803178D00031353
:10068000500803178F0003130B08D1008B13831638
:1006900003178C170C140000000083120313D11BE6
:1006A0008B1703170C0D0E0D7F390319712B0313D4
:1006B000CE0003170D080313CF0003170F08031311
:1006C000D0004E08D200F9224F0803178D00031303
:1006D000500803178F008D0A03198F0A03131D2B6F
:1006E0000317031308000B08CF008B13831603179F
:1006F0008C170C140000000083120313CF1B8B1700
:100700000318AA2B03170C087F390313CF00031714
:100710000D080313D00003170F080313D1004F086F
:10072000D200F922500803178D0003135108031754
:100730008F0003130B08D2008B13831603178C173B
:100740000C140000000083120313D21B8B17CE0B76
:10075000AA2BC92B03170C0D0E0D7F390313CF00E5
:1007600003170D080313D00003170F080313D1005C
:100770004F08D200F922500803178D0003135108C7
:1007800003178F008D0A03198F0A03100313CE0B72
:10079000732B08005108F80150020318D22B50089F
:1007A000F700DE2BF7010830D200D00DF70D51080D
:1007B00077020318F700F80DD20BD52B0800780844
:1007C0004E08D0006430D100CA237708CE007808E4
:1007D0003030031DF22BCF1CF92BCF19F92B4F1AF8
:1007E0002030F52BCF114F124F14F8077808D200A4
:1007F000F9224E08D0000A30D100CA237708CE0073
:1008000078083030031D0A2CCF190E2C4F1C0E2CEB
:100810004F1A2030F8077808D200F9223030CE077E
:100820004E08D200F9220800C70803191E2CCB1C61
:100830001E2C8316081083120814222C831608100D
:10084000831208108A110A12752E48082F02031C01
:100850002C2C0130F800322C2F084902031C322CBA
:100860000030F8000800C7080319412C4B1D412C2B
:100870002524F8080319412C831688108312881444
:10088000452C83168810831288108A110A12762E3E
:100890004B1E4C2C4B184E2CCB1D532C8316091180
:1008A00083120915572C83160911831209118A1115
:1008B0000A12772E4B1E602C2524F808031D622C8B
:1008C000CB1D692CAB112B0883168700831287156B
:1008D0006F2CAB112B0883168700831287118A11A6
:1008E0000A12782E4C08840083134D18831752087F
:1008F0008000840A8001CC0A0319CD0A08000B0885
:10090000CF008B13831603178C170C140000000004
:1009100083120313CF1B8B170318B62C03170C0875
:100920007F390313CF0003170D080313D0000317FB
:100930000F080313D1004F08D20072245008031788
:100940008D000313510803178F0003130B08D20007
:100950008B13831603178C170C14000000008312EE
:100960000313D21B8B17CE0BB62CD52C03170C0DF3
:100970000E0D7F390313CF0003170D080313D000AA
:1009800003170F080313D1004F08D2007224500838
:1009900003178D000313510803178F008D0A0319E5
:1009A0008F0A03100313CE0B7F2C080078084E0823
:1009B000D0006430D100CA237708CE0078083030E8
:1009C000031DE92CCF1CF02CCF19F02C4F1A20302E
:1009D000EC2CCF114F124F14F8077808D200722474
:1009E0004E08D0000A30D100CA237708CE0078081C
:1009F0003030031D012DCF19052D4F1C052D4F1A29
:100A00002030F8077808D20072243030CE074E0824
:100A1000D2007224080080080319202DCF01040899
:100A2000CE004F10831B4F140008D200F9224E084D
:100A3000840083134F188317840A0319850A0B2D2A
:100A4000080003081F398300813083169900A630FF
:100A50009800903083129800FF30AB00AD01AC01DC
:100A6000C7011E30C8001930C900CA014B10CB1491
:100A70004B15CB114B12CD01CC0183161F149F14C3
:100A80001F159F1107309C008313871107128712CF
:100A9000FF3086000810881008118811081288128B
:100AA00008138813831288018316850009108910A2
:100AB000091183128901992A0C30D200F9220130E0
:100AC000D300D400E722613003178D0001308F007E
:100AD00003131D230430CE00AF30E100B821CE0B4C
:100AE0006C2D0C30D200F92283168C16C030831284
:100AF0008B04060800000B108B158B100B16831649
:100B000001130C14B530831290008E018F018E01F9
:100B1000000083160108C039073881008312810163
:100B2000CA08031DBC2E0C30D200F922D101D2011B
:100B3000D301D401D5018316051083120514633047
:100B4000F700F70BA12DA42D05101930E100B821F5
:100B50000514831605146330F700F70BAD2DB02D87
:100B60008312051CB72D0030F800072EB92D051C87
:100B7000B72D6330F700F70BBB2DBE2D0518C42D24
:100B80000030F800072EC62D0518C42DD7015708D0
:100B9000043C031CF12DD6015608073C031CEF2D25
:100BA000051CD02D5330F700F70BD42D051CED2D6F
:100BB00051305707840083135608073CF800013072
:100BC000F700F8080319E82D0310F70DF80BE42DD2
:100BD0007708000480000518EB2DD60ACC2DD70A23
:100BE000C72D5208510753075407D800550858021B
:100BF0000319FD2D0030F800072E5308AF005408EC
:100C0000B0005108B1005208B2000130F800F808F5
:100C100003190A2E0130D300D400E72268300317ED
:100C20008D0001308F00031007300313CE007323B3
:100C30003108CE001B30CF00DF232C30D200F92248
:100C40003208CE001B30CF00DF232530D200F9223E
:100C50000130D3000230D400E7226F3003178D003B
:100C600001308F0003100A300313CE0073232F08C6
:100C7000CE001B30CF00DF232C30D200F922300809
:100C8000CE001B30CF00DF23DF30D200F92243300B
:100C9000D200F9220F30D3000130D400E7227730A0
:100CA00003178D0001308F00031004300313CE00B2
:100CB00073234708CE001130CF00DF234B186D2E71
:100CC0001530D3000130D400E7227B3003178D00AC
:100CD00001308F0003131D23742E823003178D0003
:100CE00001308F0003131D23142C332C482C5A2C55
:100CF0001530D3000230D400E722CD013330CC00D0
:100D0000893003178D0001308F0003100430031366
:100D1000CE007F244A08CE001B30CF00D6242C30D2
:100D2000D20072242030D20072244808CE001B303A
:100D3000CF00D6242C30D20072242030D20072246E
:100D40004908CE001B30CF00D624333084008313F3
:100D50000B252330D3000130D400E7229130031754
:100D60008D0001308F0003131D232E08D200F922BD
:100D70003230E100B8211A2F4A0BEA2E0C30D20093
:100D8000F9220130D300D400E722943003178D00FC
:100D900001308F0003131D230130D3000230D40033
:100DA000E722CD013330CC009D3003178D00013098
:100DB0008F0003100F300313CE007F244808CE00AD
:100DC0001B30CF00D6243330840083130B25323000
:100DD000E100B8214A08023C031D1A2F0C30D20052
:100DE000F9220130D300D400E722A63003178D008A
:100DF00001308F0003131D230130D3000230D400D3
:100E0000E722CD013330CC00AF3003178D00013025
:100E10008F0003100F300313CE007F244908CE004B
:100E20001B30CF00D6243330840083130B2532309F
:080E3000E100B821902D6300E0
:02400E00323F3F
:00000001FF
;PIC16F877A
;CRC=1C90  CREATED="05-Dec-22 01:17"
