:100000000C9462000C946F080C9448080C948A00BD
:100010000C948A000C948A000C948A000C948A0038
:100020000C948A000C948A000C948A000C948A0028
:100030000C948A000C94B5090C948A000C948A00E4
:100040000C94FE070C948A000C94CC070C94A60721
:100050000C948A000C948A000C948A000C948A00F8
:100060000C9496080C948A000000000024002700DD
:100070002A0000000000250028002B0000000000DE
:1000800023002600290004040404040404040202DA
:100090000202020203030303030301020408102007
:1000A0004080010204081020010204081020000012
:1000B0000008000201000003040700000000000027
:1000C0000000DC0911241FBECFEFD8E0DEBFCDBF9A
:1000D00011E0A0E0B1E0E8E0F1E202C005900D928D
:1000E000A23BB107D9F723E0A2EBB1E001C01D921A
:1000F000A334B207E1F710E0C2E6D0E004C02197D4
:10010000FE010E947C10C136D107C9F70E942D0A5A
:100110000C9482100C94000008950895AF92BF9241
:10012000CF92DF92EF92FF920F931F93CF93DF93C3
:100130006C017B018B01040F151FEB015E01AE18F2
:10014000BF08C017D10759F06991D601ED91FC9114
:100150000190F081E02DC6010995892B79F7C50141
:10016000DF91CF911F910F91FF90EF90DF90CF9093
:10017000BF90AF900895FC01538D448D252F30E042
:10018000842F90E0821B930B541710F0CF960895A4
:1001900001970895FC01918D828D981761F0A28DD1
:1001A000AE0FBF2FB11D5D968C91928D9F5F9F7397
:1001B000928F90E008958FEF9FEF0895FC01918D4D
:1001C000828D981731F0828DE80FF11D858D90E0BA
:1001D00008958FEF9FEF0895FC01918D228D892F57
:1001E00090E0805C9F4F821B91098F73992708953F
:1001F00080E892E00E94EC0021E0892B09F420E0E5
:10020000822F089580E090E0892B29F00E94F80069
:1002100081110C9400000895CF92DF92EF92FF922B
:10022000CF93C1E080E892E00E94EC00892B09F4B2
:100230007AC080E892E00E94CA00813319F4C0932A
:100240000E01F0CF803319F410920E01EBCF823300
:1002500019F4C0930F01E6CF833319F410920F0104
:10026000E1CF843319F410921501DCCF853319F4F2
:10027000C0931501D7CF863391F580911501811177
:10028000D1CF20E030E040E85FE360911101709150
:10029000120180911301909114010E941D0E6B01B7
:1002A0007C0120E030E048E452E40E94E80F87FF40
:1002B00009C0C0921101D0921201E0921301F09294
:1002C0001401B0CF80E090E0A8E4B2E48093110183
:1002D00090931201A0931301B0931401A3CF87331D
:1002E00009F0A0CF8091150181119CCF20E030E072
:1002F00040E85FE360911101709112018091130158
:10030000909114010E941C0E6B017C0120E030E0F2
:1003100040E251E40E94890E18165CF280E090E001
:10032000A0E2B1E4D3CFCF91FF90EF90DF90CF90D8
:100330000895FC01A48DA80FB92FB11DA35ABF4F7A
:100340002C91848D90E001968F739927848FA689D4
:10035000B7892C93A089B1898C91837080648C9328
:10036000938D848D981306C00288F389E02D8081D7
:100370008F7D80830895EF92FF920F931F93CF9309
:10038000DF93EC0181E0888F9B8D8C8D98131AC0D0
:10039000E889F989808185FF15C09FB7F894EE89B7
:1003A000FF896083E889F989808183708064808314
:1003B0009FBF81E090E0DF91CF911F910F91FF905F
:1003C000EF900895F62E0B8D10E00F5F1F4F0F7307
:1003D0001127E02E8C8D8E110CC00FB607FCFACFC2
:1003E000E889F989808185FFF5CFCE010E949901C6
:1003F000F1CFEB8DEC0FFD2FF11DE35AFF4FF08293
:100400009FB7F8940B8FEA89FB8980818062CFCFF8
:10041000CF93DF93EC01888D8823B9F0AA89BB893B
:10042000E889F9898C9185FD03C0808186FD0DC026
:100430000FB607FCF7CF8C9185FFF2CF808185FF47
:10044000EDCFCE010E949901E9CFDF91CF910895C0
:10045000833081F028F4813099F08230A9F008953A
:100460008730A9F08830C9F08430B1F480918000E1
:100470008F7D03C0809180008F77809380000895E6
:1004800084B58F7784BD089584B58F7DFBCF80912F
:10049000B0008F778093B00008958091B0008F7D79
:1004A000F9CFCF93DF93282F30E0F901E255FF4FCA
:1004B0008491F901E656FF4FD491F901EA57FF4FB5
:1004C000C491CC23A1F081110E942802EC2FF0E00E
:1004D000EE0FFF1FE458FF4FA591B491EC91ED236F
:1004E00081E090E009F480E0DF91CF91089580E011
:1004F00090E0FACF1F93CF93DF93282F30E0F901DC
:10050000E255FF4F8491F901E656FF4FD491F9016E
:10051000EA57FF4FC491CC23A9F0162F81110E94F6
:100520002802EC2FF0E0EE0FFF1FEE58FF4FA591D1
:10053000B4918FB7F894EC91111108C0D095DE23D7
:10054000DC938FBFDF91CF911F910895DE2BF8CF01
:10055000CF93DF9390E0FC01E656FF4F24918A573A
:100560009F4FFC0184918823C9F090E0880F991F68
:10057000FC01E859FF4FA591B491FC01EE58FF4FE3
:10058000C591D49161110DC09FB7F8948C912095BD
:1005900082238C938881282328839FBFDF91CF916A
:1005A0000895623051F49FB7F8943C91822F809562
:1005B00083238C93E8812E2BEFCF8FB7F894EC91A7
:1005C0002E2B2C938FBFEACF3FB7F8948091650212
:1005D00090916602A0916702B091680226B5A89B2F
:1005E00005C02F3F19F00196A11DB11D3FBFBA2FC5
:1005F000A92F982F8827BC01CD01620F711D811D85
:10060000911D42E0660F771F881F991F4A95D1F709
:1006100008958F929F92AF92BF92CF92DF92EF9206
:10062000FF924B015C010E94E4026B017C010E947D
:10063000E4026C197D098E099F09683E73408105AB
:100640009105A8F321E0821A9108A108B10888EE6B
:10065000C80E83E0D81EE11CF11C81149104A10492
:10066000B10429F7FF90EF90DF90CF90BF90AF904B
:100670009F908F900895089508952091F301260F7B
:100680003327331F21323105ECF420913C02FC0169
:1006900090E080E0243069F082E00895A091F301B9
:1006A0002191AC014D525E4FA40FB52FB11D2C937B
:1006B0000196861798F38091F301680F6093F30118
:1006C00080E0089581E0089510923C0281E08093DB
:1006D0003B021092160261E082E10E947A0261E020
:1006E00083E10E947A02E9EBF0E080818E7F8083D3
:1006F00080818D7F808388E48093B80085E4809337
:10070000BC000895CF93DF9391E09093D2018823AA
:10071000B9F0C091B800D091BA008091BC008A7B3A
:100720008093BC0060E082E10E947A0260E083E195
:100730000E947A020E946403D093BA00C093B8006A
:10074000DF91CF9108950895E091700280916F023A
:10075000E81730F4F0E0EE54FE4F808190E0089509
:100760008FEF9FEF08959091700280916F022FEFAD
:100770003FEF981748F4E92FF0E0EE54FE4F208148
:1007800030E09F5F90937002C901089580916F02DD
:1007900090917002891B990B0895CF92DF92EF928E
:1007A000FF920F931F93CF93DF937C01CB018A01BC
:1007B00020914202222389F0EB016B01C40ED51E69
:1007C000CC15DD0569F06991D701ED91FC9101909F
:1007D000F081E02DC7010995F3CF642F0E943D03FE
:1007E000C801DF91CF911F910F91FF90EF90DF90A3
:1007F000CF900895CF93DF931F92CDB7DEB7698373
:10080000209142022223F9F020916D02203258F00B
:1008100021E030E0FC013383228390E080E00F9000
:10082000DF91CF91089580916E02E82FF0E0ED5BAB
:10083000FD4F998190838F5F80936E0280936D024C
:1008400081E090E0ECCF61E0CE0101960E943D0393
:10085000F7CFCF92DF92EF92FF920F931F93CF9338
:10086000DF93FC01C48121E020934202C093630224
:1008700010926E0210926D028485682B8DE193E0D8
:100880000E94FA03D0916D02D13208F092C00E940A
:10089000E4026B017C0180913C02811165C082E021
:1008A00080933C0281E080933B028FEF80933A0279
:1008B00010923902D0933802A3E4B2E0E8E1F2E00A
:1008C00080E0D81385C01092170280911702CC0FD8
:1008D000C82BC093170280911602813009F07CC0AA
:1008E000109216020E94E4026B017C0180911702B3
:1008F0008093BB0080913E0290913F02A091400204
:10090000B0914102892B8A2B8B2B99F00E94E40233
:1009100000913E0210913F0220914002309141022D
:100920006C197D098E099F090617170728073907D3
:10093000E0F18091BC0083FDD9CF85EC8093BC00B1
:100940000E94E4026B017C0180913C02823009F438
:1009500045C080913A028F3F61F180913A02803226
:1009600041F180913A0225C080913E0290913F0270
:10097000A0914002B0914102892B8A2B8B2B09F464
:100980008ACF0E94E40200913E0210913F02209122
:100990004002309141026C197D098E099F090617AA
:1009A00017072807390708F076CF80913D020E948B
:1009B000820310926E0210926D0210924202DF9139
:1009C000CF911F910F91FF90EF90DF90CF900895FE
:1009D0009D9191938F5F75CF85EEB0CF80913E0250
:1009E00090913F02A0914002B0914102892B8A2B45
:1009F0008B2B09F4A9CF0E94E40200913E021091D2
:100A00003F0220914002309141026C197D098E090C
:100A10009F09061717072807390708F095CFC5CF94
:100A200090E080E008950895E9988BE393E0909337
:100A300003018093020182E00E945102892B21F57B
:100A400083E00E945102892BD9F780917202909124
:100A5000730201968436910524F590937302809376
:100A600072028091720290917302892BE9F081E009
:100A70008093710282E00E945102892BD9F383E0B6
:100A80000E945102892BD9F387E297E090930301EA
:100A90008093020180916900837F80936900E99AC5
:100AA000089583E690E0D9CF10927102E3CFFB0165
:100AB00001900020E9F73197AF01461B570BDC018D
:100AC000ED91FC910280F381E02D09948F929F9229
:100AD000AF92BF920F931F93CF93DF93CDB7DEB743
:100AE000A1970FB6F894DEBF0FBECDBF19A242305A
:100AF00008F44AE08E010F5D1F4F842E912CB12C1B
:100B0000A12CA50194010E945A10E62FB901CA0137
:100B1000EA3044F5E05DD801EE938D01232B242BC0
:100B2000252B79F790E080E0109769F0FD010190A6
:100B30000020E9F73197AF014A1B5B0BBD0186E34B
:100B400093E00E948E00A1960FB6F894DEBF0FBE10
:100B5000CDBFDF91CF911F910F91BF90AF909F902C
:100B60008F900895E95CD7CFEF92FF921F93CF93B8
:100B7000DF9361E080912F030E947A026AEF70E0B8
:100B800080E090E00E9409032FB7F89480917C02E6
:100B900090917D02A0917E02B0917F022FBF409183
:100BA0003103509132036091330370913403841701
:100BB0009507A607B70740F410923103109232034D
:100BC000109233031092340320913503211118C081
:100BD000409131035091320360913303709134039B
:100BE000841B950BA60BB70B803D9740A105B10563
:100BF00038F481E0DF91CF911F91FF90EF9008953D
:100C0000109235032FB7F89480917C0290917D0269
:100C1000A0917E02B0917F022FBF80933103909309
:100C20003203A0933303B093340310922D03109238
:100C30002C0310922B0310922A031092290361E0D7
:100C400080912F030E94A80260E080912F030E94F0
:100C50007A0264E170E080E090E00E940903F89479
:100C600061E080912F030E947A028BE990E0019766
:100C7000F1F760E080912F030E94A80210E081E06C
:100C8000C0E0D0E0E82EF12C80912F030E945102A9
:100C90008E159F0519F4DF5FDF3FB1F780912F03B9
:100CA0000E945102DF3FA1F0C43078F0C0FD0DC0BA
:100CB000E12FE695E695E695F0E0E75DFC4F908143
:100CC000990FD73008F590831F5FCF5FC535C9F600
:100CD00078941832B8F040912D0320912903809127
:100CE0002A03280F3327331F80912B03280F311D30
:100CF00080912C03820F932F911D99274817190675
:100D000009F477CF80E076CF9160DDCF0F931F930A
:100D1000CF938C01C62F0E9429046C2F6460C801F8
:100D20000E9429046C2F6B7FC8010E94290483EC68
:100D300090E00197F1F7CF911F910F9108950F93D4
:100D40001F93CF93DF938C01D62FC42F607F642B2A
:100D50000E94860680E1D89FB00111246C2BC80147
:100D6000DF91CF911F910F910C948606CF93DF9363
:100D7000CDB7DEB728970FB6F894DEBF0FBECDBF54
:100D800098E0E6E1F1E0DE01119601900D929A956E
:100D9000E1F790913E03961708F46FEF262F30E0AD
:100DA000220F331F41E050E04C0F5D1F240F351F11
:100DB000F9016081680F606840E086E393E028965F
:100DC0000FB6F894DEBF0FBECDBFDF91CF910C946C
:100DD0009F0640E061E086E393E00E949F068BE37C
:100DE0009FE10197F1F780913F03882321F060E0B4
:100DF00080E00C94B606089541E00E949F0681E0D1
:100E000090E00895CF92DF92EF92FF9297FF18C083
:100E10006B017C0141E06DE286E393E00E949F0656
:100E200066277727CB016C197D098E099F094AE057
:100E30000E9466050196FF90EF90DF90CF90089595
:100E40004AE0FF90EF90DF90CF900C946605E89811
:100E50008BE393E0909301018093000183E00E9473
:100E60005102892B21F582E00E945102892BD9F78A
:100E7000809172029091730201971816190624F559
:100E80009093730280937202809172029091730228
:100E9000892B09F181E08093710283E00E94510265
:100EA000892BD9F382E00E945102892BD9F384E186
:100EB00095E09093010180930001809169008C7FFF
:100EC00080936900E89A089510927302109272025A
:100ED0000C940000D9CF10927102DFCF85ED809382
:100EE000BC0080913E0290913F02A0914002B091DF
:100EF00041020796A11DB11D23E0B695A7959795D0
:100F000087952A95D1F72091BC0024FD03C010924B
:100F10003C02089540913E0250913F026091400290
:100F200070914102452B462B472B69F30097A10591
:100F3000B10541F025E32A95F1F700000197A109D9
:100F4000B109E1CF80913D020C9482031F920F9270
:100F50000FB60F9211242F933F934F935F936F938C
:100F60007F938F939F93AF93BF93EF93FF9380E80B
:100F700092E00E949901FF91EF91BF91AF919F91F3
:100F80008F917F916F915F914F913F912F910F9032
:100F90000FBE0F901F9018951F920F920FB60F92D1
:100FA00011242F938F939F93EF93FF93E0919002DF
:100FB000F09191028081E0919602F091970282FD7A
:100FC0001BC09081809199028F5F8F7320919A024C
:100FD000821741F0E0919902F0E0E058FD4F958FC3
:100FE00080939902FF91EF919F918F912F910F9094
:100FF0000FBE0F901F9018958081F4CF1F920F9213
:101000000FB60F9211242F933F938F939F93AF931B
:10101000BF9380917C0290917D02A0917E02B0915D
:101020007F023091640223E0230F2D3758F501969B
:10103000A11DB11D2093640280937C0290937D02D8
:10104000A0937E02B0937F02809165029091660228
:10105000A0916702B09168020196A11DB11D809315
:10106000650290936602A0936702B0936802BF91F5
:10107000AF919F918F913F912F910F900FBE0F9045
:101080001F90189526E8230F0296A11DB11DD2CFFF
:101090001F920F920FB60F9211242F933F934F93ED
:1010A0005F936F937F938F939F93AF93BF93EF93D0
:1010B000FF93E0910201F09103010995FF91EF91F7
:1010C000BF91AF919F918F917F916F915F914F9160
:1010D0003F912F910F900FBE0F901F9018951F9268
:1010E0000F920FB60F9211242F933F934F935F935C
:1010F0006F937F938F939F93AF93BF93EF93FF93E0
:10110000E0910001F09101010995FF91EF91BF91EC
:10111000AF919F918F917F916F915F914F913F918F
:101120002F910F900FBE0F901F9018951F920F9246
:101130000FB60F9211242F933F934F935F936F93AA
:101140007F938F939F93AF93BF93EF93FF93809180
:10115000B900887F803609F44AC0F0F5883209F476
:10116000A7C018F5803109F49BC0B8F4882309F4AE
:10117000F9C0883009F494C0FF91EF91BF91AF910D
:101180009F918F917F916F915F914F913F912F919F
:101190000F900FBE0F901F901895883109F488C0EA
:1011A000803251F780933A0214C0803409F49DC014
:1011B00040F48033B9F38833F9F680933A0285EC32
:1011C000B0C0803509F485C0883509F496C08834EC
:1011D00099F60E946E07D0CF883909F48CC038F593
:1011E000883729F050F4883611F0803729F683E0EB
:1011F00080933C021092150257C0883809F47BC0D6
:10120000803919F0803809F0B7CF8091150280320B
:1012100008F071C0E091150281E08E0F80931502F5
:101220008091BB00F0E0EB50FE4F80833DC0803BDF
:1012300039F0E0F4803A09F479C0883A09F09CCF9B
:1012400084E080933C021092F4011092F301E0914B
:101250006B02F0916C0209958091F30181110FC02E
:1012600081E08093F3011092D30109C0803C09F41E
:10127000A6CF883C09F4A3CF883B09F07DCFE0914D
:10128000F40181E08E0F8093F401F0E0ED52FE4F07
:1012900080818093BB009091F4018091F30129C07B
:1012A000809117028093BB0085EC8093BC0064CFD3
:1012B0009091390280913802981758F5E0913902DF
:1012C00081E08E0F80933902F0E0E85EFD4F80816F
:1012D000E9CFE091390281E08E0F8093390280914D
:1012E000BB00F0E0E85EFD4F808390913902809171
:1012F00038029817C8F285E8D8CFE091390281E02A
:101300008E0F809339028091BB00F0E0E85EFD4FC4
:10131000808380913B0281115CCF81E08093160233
:1013200084EA8093BC0010923C0226CF85EC809327
:10133000BC0010923C0280911502803230F4E091A2
:101340001502F0E0EB50FE4F10826091150270E044
:10135000E0916902F0916A0285EF91E0099510929F
:1013600015020ACF10923A0234CF1F920F920FB695
:101370000F9211242F933F934F935F936F937F931B
:101380008F939F93AF93BF93EF93FF93E0910401EB
:10139000F09105010995FF91EF91BF91AF919F9158
:1013A0008F917F916F915F914F913F912F910F900E
:1013B0000FBE0F901F901895E0E8F2E013821282A2
:1013C00088EE93E0A0E0B0E084839583A683B783A2
:1013D00022E231E03183208325EC30E03587248719
:1013E00024EC30E03787268720EC30E0318B208BEF
:1013F00021EC30E0338B228B22EC30E0358B248BD8
:1014000026EC30E0378B268B118E128E138E148EC5
:10141000EDE1F3E01382128284839583A683B78380
:1014200084E391E091838083E6E3F3E01382128208
:1014300086E491E091838083118687E2848380E152
:10144000828782E083871486E9E2F3E08CE086837A
:101450008BE0878381E084870895789484B58260E7
:1014600084BD84B5816084BD85B5826085BD85B548
:10147000816085BD80916E00816080936E001092C6
:101480008100809181008260809381008091810041
:1014900081608093810080918000816080938000D2
:1014A0008091B10084608093B1008091B000816030
:1014B0008093B00080917A00846080937A0080915C
:1014C0007A00826080937A0080917A0081608093B4
:1014D0007A0080917A00806880937A001092C1002F
:1014E000E0919002F091910282E08083E0918C0281
:1014F000F0918D021082E0918E02F0918F028FECBC
:10150000808310929802E0919402F091950286E017
:101510008083E0919202F0919302808180618083C8
:10152000E0919202F0919302808188608083E09143
:101530009202F0919302808180688083E091920210
:10154000F091930280818F7D8083109270021092BF
:101550006F0210926E0210926D020E9464038CE87A
:1015600090E090936C0280936B028DE890E09093F2
:101570006A028093690210923B038091410382309A
:1015800018F098E090933B0380933E0362E370E091
:1015900080E090E00E9409036091420386E393E0BB
:1015A0000E94290468EE73E080E090E00E94090345
:1015B00060E386E393E00E948606CBE4D6E4CE01A6
:1015C0000197F1F760E386E393E00E948606219796
:1015D000F1F760E386E393E00E94860683E592E0FC
:1015E0000197F1F760E286E393E00E94860660913E
:1015F0003B03606240E086E393E00E949F0684E044
:1016000080933C0340E06CE086E393E00E949F06F9
:101610000E94E90682E080933D0340E066E086E3B5
:1016200093E00E949F0640E062E086E393E00E9420
:101630009F068BE39FE10197F1F788E080934203D7
:1016400060E086E393E00E94290460E080E00E946D
:10165000B6066EE471E086E393E00E94570540E031
:1016600068E486E393E00E949F06C6E0D1E00EE0C6
:1016700011E0699186E393E00E94FC060C171D07B8
:10168000C1F760E082E00E94A80260E083E00E946F
:10169000A80261E08DE00E94A80261E08BE00E9458
:1016A000A80262E08AE00E94A80262E089E00E944B
:1016B000A80262E088E00E94A80284E195E090938D
:1016C000010180930001809169008C7F8093690003
:1016D000E89A87E297E0909303018093020180915A
:1016E0006900837F80936900E99A80E1809381009B
:1016F0001092800080EC9DE5909387008093860097
:1017000081E1809381008CE091E0909305018093CA
:10171000040181E080936F00C0E0D0E011E08AE036
:101720000E945102892BC1F4009115016AE070E01A
:1017300080E090E00E9409038AE00E945102892B18
:1017400031F40E94E906002319F1109215018AE094
:101750000E945102892BD9F380911501882309F445
:10176000A0C10E94B405882341F0809130038B30E2
:1017700091F018F085518230A8F164E571E080E8BD
:1017800092E00E94570560E070E080EC9FE70AC09D
:1017900010931501DCCF6091290370E090E080E0A8
:1017A0000E94360F609378027093790280937A02D8
:1017B00090937B020E94B405882349F08091300306
:1017C0008B3089F120F08551823008F420C164E526
:1017D00071E080E892E00E94570560E070E080ECE4
:1017E0009FE728C06091290370E090E080E00E94AC
:1017F000360F20E030E040E853E40E94ED0F6B012B
:101800007C0160912A0370E090E080E00E94380F34
:10181000A70196010E941D0E20E030E040E251E455
:101820000E948E0EBFCF60912B0370E090E080E0AD
:101830000E94360F60937402709375028093760253
:101840009093770261E080E00E94B6066EE571E059
:1018500086E393E00E94570561E082E00E94B606AD
:101860006091720270917302072E000C880B990B25
:101870000E94020780917202909173020A9754F4B9
:1018800061E083E00E94B6066AE671E086E393E0D9
:101890000E94570560E080E00E94B60661E671E0B4
:1018A00086E393E00E94570560E082E00E94B6065E
:1018B000C0907402D0907502E0907602F0907702AA
:1018C00020E030E0A901C701B6010E94E80F20E046
:1018D00030E040E05FE387FDC0C0C701B6010E9471
:1018E0001D0E0E94000F0E94020761E086E393E054
:1018F0000E94FC0664E671E086E393E00E945705CF
:1019000060E089E00E94B6066CE671E086E393E051
:101910000E94570560E08BE00E94B606C0907802F6
:10192000D0907902E0907A02F0907B0220E030E0E3
:10193000A901C701B6010E94E80F20E030E040E0B5
:101940005FE387FD8FC0C701B6010E941D0E0E9494
:10195000000F0E9402076FE671E086E393E00E94A9
:1019600057058091710261E0882309F480C080915D
:101970000E01882309F47BC084E00E94B60663E769
:1019800071E086E393E00E94570561E08DE00E94DC
:101990007A0220911101309112014091130150916E
:1019A0001401609174027091750280917602909199
:1019B00077020E94E80F87FD65C0109310018091A7
:1019C0007102882309F461C080911001882309F411
:1019D0005CC080910F01882309F457C061E08AE060
:1019E0000E94B60663E871E086E393E00E94570523
:1019F00061E08BE00E947A02209709F490CE0E9469
:101A0000F800882309F48BCE0E94000088CE009154
:101A10002B03602F6F7770E090E080E00E94380F1A
:101A200020E030E040E853E40E94ED0F6B017C01C0
:101A300060912C0370E090E080E00E94380FA701D5
:101A400096010E941D0E20E030E040E251E40E9429
:101A50008E0E07FFEFCE9058EDCEC701B6010E9463
:101A60001C0E3FCFC701B6010E941C0E70CF84E050
:101A70000E94B6066BE771E086E393E00E9457058B
:101A800060E084CF109210019ACF61E08AE00E945A
:101A9000B6066AE871E086E393E00E94570560E0CD
:101AA000A8CF89E00E945102892B81F56AE070E09D
:101AB00080E090E00E94090389E00E945102892B96
:101AC00001F520E030E040E85FE3609111017091A2
:101AD000120180911301909114010E941D0E6B015F
:101AE0007C0120E030E048E452E40E94E80F87FFE8
:101AF00084C0C0921101D0921201E0921301F092C1
:101B0000140189E00E945102892BD9F388E00E94D8
:101B10005102892B89F56AE070E080E090E00E9434
:101B2000090388E00E945102892B09F520E030E08A
:101B300040E85FE3609111017091120180911301FF
:101B4000909114010E941C0E6B017C0120E030E09A
:101B500040E251E40E94890E18160CF05BC0C0925E
:101B60001101D0921201E0921301F092140188E069
:101B70000E945102892BD9F360E080E00E94B606F2
:101B800061E971E086E393E00E94570561E080E03F
:101B90000E94B60662EA71E086E393E00E94570570
:101BA00061E08BE00E94B606C0901101D090120156
:101BB000E0901301F090140120E030E0A901C7018A
:101BC000B6010E94E80F20E030E040E05FE387FDCF
:101BD0002EC0C701B6010E941D0E0E94000F0E9478
:101BE000020761E086E393E00E94FC066EEA71E082
:101BF00086E393E00E945705FFCE80E090E0A8E4E2
:101C0000B2E48093110190931201A0931301B09359
:101C1000140177CF80E090E0A0E2B1E4809311015D
:101C200090931201A0931301B0931401A0CFC701A8
:101C3000B6010E941C0ED1CF5058BB27AA270E9484
:101C4000340E0C94AE0F0E94A00F38F00E94A70F24
:101C500020F039F49F3F19F426F40C949D0F0EF4F4
:101C6000E095E7FB0C94970FE92F0E94BF0F58F304
:101C7000BA17620773078407950720F079F4A6F571
:101C80000C94E10F0EF4E0950B2EBA2FA02D0B0152
:101C9000B90190010C01CA01A0011124FF27591BB1
:101CA00099F0593F50F4503E68F11A16F040A22FB7
:101CB000232F342F4427585FF3CF46953795279528
:101CC000A795F0405395C9F77EF41F16BA0B620B27
:101CD000730B840BBAF09150A1F0FF0FBB1F661F6E
:101CE000771F881FC2F70EC0BA0F621F731F841FB1
:101CF00048F4879577956795B795F7959E3F08F0D7
:101D0000B0CF9395880F08F09927EE0F9795879598
:101D100008950E94730F08F481E008950E94A20EB6
:101D20000C94AE0F0E94A70F58F00E94A00F40F035
:101D300029F45F3F29F00C94970F51110C94E20F96
:101D40000C949D0F0E94BF0F68F39923B1F35523A4
:101D500091F3951B550BBB27AA27621773078407BE
:101D600038F09F5F5F4F220F331F441FAA1FA9F354
:101D700035D00E2E3AF0E0E832D091505040E69542
:101D8000001CCAF72BD0FE2F29D0660F771F881FA3
:101D9000BB1F261737074807AB07B0E809F0BB0B96
:101DA000802DBF01FF2793585F4F3AF09E3F5105AA
:101DB00078F00C94970F0C94E20F5F3FE4F3983E99
:101DC000D4F3869577956795B795F7959F5FC9F793
:101DD000880F911D9695879597F90895E1E0660F14
:101DE000771F881FBB1F621773078407BA0720F08D
:101DF000621B730B840BBA0BEE1F88F7E0950895F6
:101E00000E94070F6894B1110C94E20F08950E948C
:101E1000C70F88F09F5798F0B92F9927B751B0F0A6
:101E2000E1F0660F771F881F991F1AF0BA95C9F75E
:101E300014C0B13091F00E94E10FB1E008950C940C
:101E4000E10F672F782F8827B85F39F0B93FCCF3BF
:101E5000869577956795B395D9F73EF490958095DB
:101E6000709561957F4F8F4F9F4F0895E89409C0FB
:101E700097FB3EF490958095709561957F4F8F4FBD
:101E80009F4F9923A9F0F92F96E9BB279395F695D3
:101E9000879577956795B795F111F8CFFAF4BB0F51
:101EA00011F460FF1BC06F5F7F4F8F4F9F4F16C0B5
:101EB000882311F096E911C0772321F09EE8872F3F
:101EC000762F05C0662371F096E8862F70E060E0FB
:101ED0002AF09A95660F771F881FDAF7880F969574
:101EE000879597F90895990F0008550FAA0BE0E818
:101EF000FEEF16161706E807F907C0F012161306CC
:101F0000E407F50798F0621B730B840B950B39F40B
:101F10000A2661F0232B242B252B21F408950A2671
:101F200009F4A140A6958FEF811D811D089597F9B1
:101F30009F6780E870E060E008959FEF80EC08956F
:101F400000240A9416161706180609060895002498
:101F50000A9412161306140605060895092E039412
:101F6000000C11F4882352F0BB0F40F4BF2B11F486
:101F700060FF04C06F5F7F4F8F4F9F4F089557FDE5
:101F80009058440F551F59F05F3F71F04795880FE7
:101F900097FB991F61F09F3F79F08795089512167E
:101FA00013061406551FF2CF4695F1DF08C016162A
:101FB00017061806991FF1CF8695710561050894DB
:101FC0000895E894BB2766277727CB0197F90895F2
:101FD0000E94730F08F48FEF08950E9400100C9474
:101FE000AE0F0E94A00F38F00E94A70F20F095239B
:101FF00011F00C94970F0C949D0F11240C94E20F88
:102000000E94BF0F70F3959FC1F3950F50E0551FCD
:10201000629FF001729FBB27F00DB11D639FAA273D
:10202000F00DB11DAA1F649F6627B00DA11D661F8C
:10203000829F2227B00DA11D621F739FB00DA11DAD
:10204000621F839FA00D611D221F749F3327A00D67
:10205000611D231F849F600D211D822F762F6A2F03
:1020600011249F5750409AF0F1F088234AF0EE0F68
:10207000FF1FBB1F661F771F881F91505040A9F795
:102080009E3F510580F00C94970F0C94E20F5F3F38
:10209000E4F3983ED4F3869577956795B795F795D1
:1020A000E7959F5FC1F7FE2B880F911D9695879549
:1020B00097F90895A1E21A2EAA1BBB1BFD010DC0C2
:1020C000AA1FBB1FEE1FFF1FA217B307E407F507E8
:1020D00020F0A21BB30BE40BF50B661F771F881FC4
:1020E000991F1A9469F760957095809590959B015A
:1020F000AC01BD01CF010895EE0FFF1F0590F491D3
:08210000E02D0994F894FFCFD3
:102108003B033B0313050E0A0E000000000001010B
:10211800010000D8410100004000140054000000F4
:102128000000BB018E00BB000802EC00CA00DE0004
:1021380000000000FA03CD031005A303C603B30390
:10214800A40300000000FC068E0010053C0348654F
:102158006C6C6F0052656164206661696C004E3D6D
:1021680000543D004320202020202000483D002529
:10217800202000204C3D6261742000204C3D746199
:1021880074200020513D6261740020513D746174D7
:10219800004E68696574446F204F6E2051756174F4
:1021A80020004E68696574446F203E3D200043203E
:0221B800200005
:00000001FF
