:1000000005308A00262D0000FF00030E8301A100A9
:100010000A08A0008A010408A2007708A300780853
:10002000A4007908A5007A08A60003170D08031399
:10003000A70003170F080313A80003170C080313E6
:10004000A90003170E080313AA00831383128B1D44
:100050002B280B1860280B1E2F288B1863288C3038
:100060008400801E35288C1A66288C308400001C81
:100070003B280C1869288B1E3F280B196C28220876
:1000800084002308F7002408F8002508F900260852
:10009000FA00270803178D000313280803178F00A1
:1000A0000313290803178C0003132A0803178E0073
:1000B000031320088A00210E8300FF0E7F0E090023
:1000C0008A110A1281288A110A12F3288A110A1247
:1000D000B3288A110A121F298A110A1246294A0BCB
:1000E0007328C80A77284A08023C0319C90A08007D
:1000F0004A0B7C28C80380284A08023C0319C9031C
:100100000800060800000B10861B8D28861F862815
:10011000CA0A4A08023C031CCA01061A9828061E8D
:100120008F28CA08031D97280230CB0698286F2015
:10013000861AA328861E9A28CA08031DA2280430FE
:10014000CB06A3287820061BAF28061FA528013060
:10015000CB064B18AF2883160812831208120B1017
:100160008A110A123F288C1EB3281A08AE002E08E6
:10017000733A0319D428073A0319DA28133A0319F2
:10018000DC28563A0319DE28033A0319E028013A1D
:100190000319E228073A0319E428013A0319E6286B
:1001A000033A0319E828EF28CA0A4A08023C031C4C
:1001B000CA01EF286F20EF287820EF28CB14EF2812
:1001C000CB10EF284B15EF284B11EF284B14EF28DD
:1001D0004B10081EEF2883160812831208128C1287
:1001E0008A110A123F28861804290B124B1C002979
:1001F0008316081283120816AD01AC018B1681011B
:1002000006190029C70A1A2906191A290B124B1CAC
:1002100011298316081283120816AD01AC018B1642
:100220008101861811294708013C031C1929C701BF
:100230001A29C7030B168B108A110A123F28051DB5
:10024000232985192529CB152629CB11051A2D29F6
:100250008316081383120817312983160813831293
:100260000813851A39294B168316881183128815AD
:100270003E294B1283168811831288118E018F013B
:100280008E0100000C108A110A123F28AC0A0319D3
:10029000AD0A2C08FC3C031D5C292D08083C031DFD
:1002A0005C29AD01AC014B1C5C29081E5C2983163E
:1002B0000812831208128B1281010B118A110A1283
:1002C0003F28CD3C2028F237EA32633AA0190000DB
:1002D000C437A0206D1DA0127516A53A00004E343B
:1002E000E9327410C4373A10A53AAC127500D3370E
:1002F0004E1D25197500C2306F10C437EE33BA2772
:1003000066332000C2306F10C437EE33BA276E1048
:100310000001C4253A10A53A2C10A53A2C10A53A94
:1003200000002010C4252027E834653A20226F10F1
:10033000C23074004E34E93274226F22EB2FC23087
:10034000741DA01275002010C4252027E834653ADA
:1003500020226F10D43074004E34E93274226F22A0
:10036000EB2FD430741DA01275006130840083130C
:1003700000080319C8290630F800F701F70BBE2959
:10038000F80BBD297B30F700F70BC429800BBB2984
:1003900008005A18CD298711CE298715AB112B08D3
:1003A000831687008312DA18D7290712D82907166F
:1003B0002B122B088316870083125A19E129871202
:1003C000E2298716AB122B08831687008312DA19ED
:1003D000EB298813EC2988178316881300008312F1
:1003E0000915831609110330F700F70BF52983125D
:1003F00009118316091183120800DB01AB152B08C4
:10040000831687000030831287190130DB042B1616
:100410002B088316870000308312071A0130F7007B
:100420000310F70D7708DB04AB162B088316870043
:1004300000308312871A0130F700F70DF70DFC30FA
:10044000F7057708DB048316881700308312881BB2
:100450000130F700F70DF70DF70DF830F7057708C5
:10046000DB045B08F80008008316091109108910E5
:100470008312091083160910871507168716881727
:1004800083128914831689100000831209158316BC
:10049000091100008312FD217808DA000911831682
:1004A000091100008312091583160911572A582AC9
:1004B00000008312FD217808D90009118316091163
:1004C0008312AB112B088316870083122B122B0883
:1004D000831687008312AB122B08831687008813BC
:1004E00083125A0EF700F030F70577085904F80028
:1004F0007808D900D91F7E2A83163C2AD708031D05
:10050000832A0910842A0914831609100000831213
:1005100089108316891000008312091183160911AE
:100520008312580ED9000F30D9055908DA00C921B5
:1005300058080F39D900DA00C92108002830CF0047
:100540000C30D0000130D1000630D20009118316E2
:10055000091183120910831609108312891083165A
:1005600089108312AB112B088316870083122B127C
:100570002B08831687008312AB122B088316870083
:1005800088130911091089100F308312E100B52179
:100590000130CE004E08033C031CD62A0330DA009B
:1005A000C9210530E100B521CE0ACA2A0230DA009D
:1005B000C9210530E100B521CE014E08033C031CE2
:1005C000ED2A4F304E07840083130008D300D70173
:1005D0005308D8003422CE0ADD2A8A110A125C2D73
:1005E000540BF32AF62A4030D500F72AD501013002
:1005F0005302D50755088038D600D7015608D800D1
:100600003422080052080C3A03190D2B063A03193C
:10061000152B023A03191B2B202BD7010130D800D0
:1006200034220230E100B521252B0130D300023005
:10063000D400F022252BD7011030D8003422252BEE
:100640000130D7005208D800342208000B08CE0031
:100650008B13831603178C170C14000000008312F1
:100660000313CE1B8B1703170C087F3903197A2B42
:100670000313CE0003170D080313CF0003170F0851
:100680000313D0004E08D20002234F0803178D0039
:100690000313500803178F0003130B08D1008B13AB
:1006A000831603178C170C14000000008312031329
:1006B000D11B8B1703170C0D0E0D7F3903197A2BE5
:1006C0000313CE0003170D080313CF0003170F0801
:1006D0000313D0004E08D20002234F0803178D00E9
:1006E0000313500803178F008D0A03198F0A031391
:1006F000262B0317031308000B08CF008B13831658
:1007000003178C170C140000000083120313CF1B77
:100710008B170318B32B03170C087F390313CF0073
:1007200003170D080313D00003170F080313D1009C
:100730004F08D2000223500803178D0003135108FD
:1007400003178F0003130B08D2008B1383160317B4
:100750008C170C140000000083120313D21B8B179C
:10076000CE0BB32BD22B03170C0D0E0D7F390313B9
:10077000CF0003170D080313D00003170F0803134E
:10078000D1004F08D2000223500803178D00031335
:10079000510803178F008D0A03198F0A03100313E2
:1007A000CE0B7C2B08005108F80150020318DB2BFC
:1007B0005008F700E72BF7010830D200D00DF70DF5
:1007C000510877020318F700F80DD20BDE2B080052
:1007D00078084E08D0006430D100D3237708CE00CB
:1007E00078083030031DFB2BCF1C022CCF19022CB4
:1007F0004F1A2030FE2BCF114F124F14F8077808F4
:10080000D20002234E08D0000A30D100D32377084B
:10081000CE0078083030031D132CCF19172C4F1C35
:10082000172C4F1A2030F8077808D20002233030F6
:10083000CE074E08D20002230800C7080319272C50
:10084000CB1C272C83160810831208142B2C83161C
:100850000810831208108A110A12752E48082F02F8
:10086000031C352C0130F8003B2C2F084902031CD7
:100870003B2C0030F8000800C70803194A2C4B1D18
:100880004A2C2E24F80803194A2C83168810831248
:1008900088144E2C83168810831288108A110A122D
:1008A000762E4B1E552C4B18572CCB1D5C2C8316CB
:1008B000881283128816602C83168812831288127D
:1008C0008A110A12772E4B1E692C2E24F808031D5C
:1008D0006B2CCB1D702C8316081183120815742CF9
:1008E00083160811831208118A110A12782E4C08F7
:1008F000840083134D18831752088000840A8001F6
:10090000CC0A0319CD0A08000B08CF008B138316FD
:1009100003178C170C140000000083120313CF1B65
:100920008B170318BB2C03170C087F390313CF0058
:1009300003170D080313D00003170F080313D1008A
:100940004F08D2007724500803178D000313510875
:1009500003178F0003130B08D2008B1383160317A2
:100960008C170C140000000083120313D21B8B178A
:10097000CE0BBB2CDA2C03170C0D0E0D7F39031395
:10098000CF0003170D080313D00003170F0803133C
:10099000D1004F08D2007724500803178D000313AD
:1009A000510803178F008D0A03198F0A03100313D0
:1009B000CE0B842C080078084E08D0006430D1009B
:1009C000D3237708CE0078083030031DEE2CCF1CDF
:1009D000F52CCF19F52C4F1A2030F12CCF114F12D6
:1009E0004F14F8077808D20077244E08D0000A3058
:1009F000D100D3237708CE0078083030031D062DB0
:100A0000CF190A2D4F1C0A2D4F1A2030F8077808ED
:100A1000D20077243030CE074E08D2007724080069
:100A200080080319252DCF010408CE004F10831B29
:100A30004F140008D20002234E08840083134F187D
:100A40008317840A0319850A102D080003081F392B
:100A50008300813083169900A6309800903083126D
:100A60009800FF30AB00AD01AC01C7011E30C800DB
:100A70001930C900CA014B10CB144B15CB114B12C6
:100A8000CD01CC0183161F149F141F159F11073031
:100A90009C008313871107128712FF30860088019C
:100AA000831288018316051585150516851609100C
:100AB0008914091183129E2A0C30D20002230130BE
:100AC000D300D400F022613003178D0001308F0075
:100AD000031326230430CE00AF30E100B521CE0B46
:100AE0006C2D0C30D200022383168C16C03083127A
:100AF0008B04060800000B108B158B100B16831649
:100B000001130C14B530831290008E018F018E01F9
:100B1000000083160108C039073881008312810163
:100B2000CA08031DBE2E0C30D2000223D101D2010F
:100B3000D301D401D5018316051083120514633047
:100B4000F700F70BA12DA42D05101930E100B521F8
:100B50000514831605146330F700F70BAD2DB02D87
:100B60008312051CB72D0030F800072EB92D051C87
:100B7000B72D6330F700F70BBB2DBE2D0518C42D24
:100B80000030F800072EC62D0518C42DD7015708D0
:100B9000043C031CF12DD6015608073C031CEF2D25
:100BA000051CD02D5330F700F70BD42D051CED2D6F
:100BB00051305707840083135608073CF800013072
:100BC000F700F8080319E82D0310F70DF80BE42DD2
:100BD0007708000480000518EB2DD60ACC2DD70A23
:100BE000C72D5208510753075407D800550858021B
:100BF0000319FD2D0030F800072E5308AF005408EC
:100C0000B0005108B1005208B2000130F800F808F5
:100C100003190A2E0130D300D400F02268300317E4
:100C20008D0001308F00031007300313CE007C23AA
:100C30003108CE001B30CF00E8232C30D200022335
:100C40003208CE001B30CF00E8232530D20002232B
:100C50000130D3000230D400F0226F3003178D0032
:100C600001308F0003100A300313CE007C232F08BD
:100C7000CE001B30CF00E8232C30D20002233008F6
:100C8000CE001B30CF00E823DF30D20002234330F8
:100C9000D20002230F30D3000130D400F02277308D
:100CA00003178D0001308F00031004300313CE00B2
:100CB0007C234708CE001130CF00E8234B186D2E5F
:100CC0001530D3000130D400F0227B3003178D00A3
:100CD00001308F0003132623742E823003178D00FA
:100CE00001308F00031326231D2C3C2C512C632C28
:100CF0001530D3000230D400F022CD013330CC00C7
:100D0000893003178D0001308F0003100430031366
:100D1000CE0084244A08CE001B30CF00DB242C30C8
:100D2000D20077242030D20077244808CE001B3030
:100D3000CF00DB242C30D20077242030D20077245F
:100D40004908CE001B30CF00DB24333084008313EE
:100D500010252330D3000130D400F0226B30D200B4
:100D600002237130D20002233D30D20002232E082C
:100D7000D20002233230E100B5211C2F4A0BEC2EA9
:100D80000C30D20002230130D300D400F022913085
:100D900003178D0001308F00031326230130D30089
:100DA0000230D400F022CD013330CC009A3003174A
:100DB0008D0001308F0003100F300313CE00842408
:100DC0004808CE001B30CF00DB243330840083136F
:100DD00010253230E100B5214A08023C031D1C2FCA
:100DE0000C30D20002230130D300D400F022A33013
:100DF00003178D0001308F00031326230130D30029
:100E00000230D400F022CD013330CC00AC300317D7
:100E10008D0001308F0003100F300313CE008424A7
:100E20004908CE001B30CF00DB243330840083130D
:0C0E300010253230E100B521902D630048
:02400E00323F3F
:00000001FF
;PIC16F877A
;CRC=FBB1  CREATED="01-Dec-22 18:32"
