:1000000003308A003C2B00000A108A100A11820774
:1000100028340C3401340634D222412249274710B7
:100020004424D4183100C427A0206D1DA0127516D9
:10003000A53A00004E24C922541044183A10A53A9B
:10004000AC1275005430840083130008031935285E
:100050000630F800F701F70B2B28F80B2A287B3025
:10006000F700F70B3128800B282808000830F8002B
:100070000430F700F70B3A288711A01120088316E7
:1000800087000330F700F70B43288312D20D0712C5
:10009000031C50282016200883168700542883123A
:1000A000201220088316870000008312A015200864
:1000B000831687008312871D5B28F80B38280430CD
:1000C000F700F70B61288711A0112008831687001D
:1000D0000000831220162008831687000330F700E3
:1000E000F70B70280330F700F70B74288312A01564
:1000F0002008831687008312871D7C28F8010330AF
:10010000F700F70B8128071A78148711A01120082F
:100110008316870083120712201220088316870097
:10012000831208005008003A03199A28013A03196B
:10013000BD28E1284F0EF700F030F70577082504B9
:10014000D100D200362000004F0EF700F030F70546
:10015000770804382504D100D20036200330F70098
:10016000F70BB0284F0EF700F030F7057708FB3992
:100170002504D100D2003620E1284F0EF700F030E0
:10018000F705770801382504D100D2003620000099
:100190004F0EF700F030F7057708013804382504D2
:1001A000D100D20036200330F700F70BD5284F0ED0
:1001B000F700F030F705770801382504D100D200A8
:1001C0003620080020162008831687000430F70028
:1001D000F70BE8288312A015200883168700033048
:1001E000F700F70BF128831207122012200883165C
:1001F00087000430F700F70BFB2883128711A0114A
:1002000020088316870083122108D20036204C0E66
:10021000CE000F30CE054E08CF004D08D000922002
:100220004C080F39CE00CF004D08D000922020128C
:1002300020088316870000008312A015200883166B
:1002400087008312871D22290430F700F70B262927
:100250002929000020162008831687000430F700A3
:10026000F70B3029831208000130CC00CD01E220C9
:100270000230D40022200130A40008004108A1006F
:100280004308A2004208A3000B138B138B1B4529C4
:100290003230D40022202016200883168700043034
:1002A000F700F70B51298312A01520088316870049
:1002B0000330F700F70B5A29831207122012200887
:1002C000831687000430F700F70B64298312871127
:1002D000A01120088316870083122108D20036203F
:1002E000CF01D00192200F30D40022200130C40071
:1002F0004408033C031C85290330CF00D001922021
:100300000530D4002220C40A78290230CF00D00161
:1003100092200530D4002220201220088316870066
:1003200000008312A0152008831687008312871D02
:1003300097290430F700F70B9B299E29000020160F
:100340002008831687000430F700F70BA5298312D5
:10035000C4014408033C031CB82944080420C50018
:10036000CC00CD01E2200530D4002220C40AA92906
:100370003421C0308B040800C1080319C229083099
:10038000A500C329A5010800460822020318CB29AD
:100390002208C700CD294608C7004708013A0319BB
:1003A000DB29033A0319DD29013A0319E029073A49
:1003B0000319E329E629C901E7294030C900E729E3
:1003C0001430C900E7295430C900E729C90145089C
:1003D00023020318EE292308C800F0294508C800A5
:1003E000013048024907CA004A088038CB00CC00D7
:1003F000CD01E220080044080C3A0319062A063A07
:100400000319082A023A0319152A1A2A34211F2A25
:10041000A40A2408220203180F2A0130A400013084
:10042000C5002408C600C4211F2A1030CC00CD010D
:10043000E2201F2A4408CC000130CD00E220080051
:100440000B08C1008B13831603178C170C140000C4
:10045000000083120313C11B8B1703170C087F398D
:100460000319742A0313C10003170D080313C200F4
:1004700003170F080313C3004108C400FB214208FF
:1004800003178D000313430803178F0003130B0892
:10049000C4008B13831603178C170C140000000084
:1004A00083120313C41B8B1703170C0D0E0D7F391A
:1004B0000319742A0313C10003170D080313C200A4
:1004C00003170F080313C3004108C400FB214208AF
:1004D00003178D000313430803178F008D0A0319B8
:1004E0008F0A0313202A031703138A110A12732B8E
:1004F0002708840083132818831745088000840A7E
:100500008001A70A0319A80A08000B08C2008B1370
:10051000831603178C170C140000000083120313BA
:10052000C21B8B170318BC2A03170C087F3903134F
:10053000C20003170D080313C30003170F080313AA
:10054000C4004208C5007822430803178D00031336
:10055000440803178F0003130B08C5008B13831681
:1005600003178C170C140000000083120313C51B23
:100570008B17C10BBC2ADB2A03170C0D0E0D7F391C
:100580000313C20003170D080313C30003170F085A
:100590000313C4004208C5007822430803178D00E6
:1005A0000313440803178F008D0A03198F0A0310E1
:1005B0000313C10B852A08004408F80143020318FD
:1005C000E42A4308F700F02AF7010830C500C30DFC
:1005D000F70D440877020318F700F80DC50BE72A5A
:1005E000080078084108C3006430C400DC227708A2
:1005F000C10078083030031D042BC21C0B2BC2191C
:100600000B2B421A2030072BC21142124214F8075A
:100610007808C50078224108C3000A30C400DC22F3
:100620007708C10078083030031D1C2BC219202B1D
:10063000421C202B421A2030F8077808C500782287
:100640003030C1074108C50078220800800803192E
:100650003B2BC2010408C1004210831B4214000856
:10066000C400FB2141088400831342188317840AC5
:100670000319850A262B080003081F398300FF3061
:10068000A0000130A4000830A500A801A70183162E
:100690001F149F141F159F1107309C008313831292
:1006A000A6014E30C1001030C2000230C3003E210E
:1006B0000130C100BC214030C1001030C200023006
:1006C000C3003E210130C100BC210C30C400FB211D
:1006D0000130C500C600C4210C3003178D00003066
:1006E0008F000313202A0230C100FA30D4002220E8
:1006F000C10B752B0C30C400FB21C401C501C60120
:10070000C701C80183160610831206146330F70070
:10071000F70B882B8B2B06101930D40022200614DF
:10072000831606146330F700F70B942B972B831274
:10073000061C9E2B0030F800EE2BA02B061C9E2BD7
:100740006330F700F70BA22BA52B0618AB2B00305C
:10075000F800EE2BAD2B0618AB2BCA014A08043C5F
:10076000031CD82BC9014908073C031CD62B061CC7
:10077000B72B5330F700F70BBB2B061CD42B4430A0
:100780004A07840083134908073CF8000130F7004A
:10079000F8080319CF2B0310F70DF80BCB2B7708B4
:1007A000000480000618D22BC90AB32BCA0AAE2B4C
:1007B0004508440746074707CB0048084B02031982
:1007C000E42B0030F800EE2B4608A9004708AA00E9
:1007D0004408AB004508AC000130F800F8080319E4
:1007E0003F2CA8012D30A700133003178D000030D7
:1007F0008F00031007300313C10085222B08C100AE
:100800001B30C200F1222C30C50078222C08C10018
:100810001B30C200F1220130C500C600C4212D30BA
:100820008400831326232530C400FB21A8012D302A
:10083000A7001A3003178D0000308F0003100A3014
:100840000313C10085222908C1001B30C200F12218
:100850002C30C50078222A08C1001B30C200F122CA
:100860000130C5000230C600C4212D30840083133E
:100870002623DF30C400FB214330C400FB217D2B45
:02088000630013
:02400E00733FFE
:00000001FF
;PIC16F877A
;CRC=B27C  CREATED="10-Nov-22 22:14"
