:1000000005308A005B2D0000FF00030E8301A10074
:100010000A08A0008A010408A2007708A300780853
:10002000A4007908A5007A08A60003170D08031399
:10003000A70003170F080313A80003170C080313E6
:10004000A90003170E080313AA00831383128B1D44
:100050002B280B1860280B1E2F288B1863288C3038
:100060008400801E35288C1A66288C308400001C81
:100070003B280C1869288B1E3F280B196C28220876
:1000800084002308F7002408F8002508F900260852
:10009000FA00270803178D000313280803178F00A1
:1000A0000313290803178C0003132A0803178E0073
:1000B000031320088A00210E8300FF0E7F0E090023
:1000C0008A110A1281288A110A1211298A110A1228
:1000D000B3288A110A123D298A110A127F294B0B73
:1000E0007328C90A77284B08023C0319CA0A08007A
:1000F0004B0B7C28C90380284B08023C0319CA0318
:100100000800060800000B10861B8D28861F862815
:10011000CB0A4B08023C031CCB01061A9828061E8A
:100120008F28CB08031D97280130AB0698286F2035
:10013000861AA328861E9A28CB08031DA2280230FF
:10014000AB06A3287820061BAF28061FA528203061
:10015000AB06AB1AAF2883160910831209100B10D7
:100160008A110A123F288C1EB3281A08AF002F08E4
:10017000733A0319E628073A0319EC28133A0319CE
:10018000EE28563A0319F028033A0319F228013AE7
:100190000319F428073A0319F628013A0319F82835
:1001A000033A0319FA28013A031902290F3A0319ED
:1001B0000429013A03190629093A03190829513A71
:1001C00003190A29033A03190C290D29CB0A4B08F4
:1001D000023C031CCB010D296F200D2978200D292D
:1001E0002B140D292B100D29AB140D29AB100D2943
:1001F000AB160D29AB12091C0129831609108312B5
:1002000009100D292B150D292B110D29AB150D29C1
:10021000AB110D292B160D292B128C128A110A12E3
:100220003F28861822290B12AB1E1E29831609109F
:1002300083120914AE01AD018B16810106191E2926
:10024000C80A3829061938290B12AB1E2F29831624
:10025000091083120914AE01AD018B1681018618B5
:100260002F294808013C031C3729C8013829C80335
:100270000B168B108A110A123F28051D412985197A
:1002800043292B1744292B13051A4D292B1E4D29C1
:1002900083168910831289145129831689108312B9
:1002A0008910851A6029AB172B1D5B2983168813CB
:1002B000831288175F298316881383128813652990
:1002C000AB13831688138312881307186B29071C36
:1002D00067290430AB0687187129871C6D290830FF
:1002E000AB0607197729071D73291030AB068E015D
:1002F0008F018E0100000C108A110A123F28AD0AEE
:100300000319AE0A2D08FC3C031D95292E08083C54
:10031000031D9529AE01AD01AB1E9529091C952938
:1003200083160910831209108B1281010B118A1197
:100330000A123F28CD3C2028F237EA32633AA0194E
:100340000000C437A0206D1DA0127516A53A00004C
:100350004E34E9327410C4373A10A53AAC12750025
:10036000D3374E1D25197500C2306F10C437EE33D8
:10037000BA2766332000C2306F10C437EE33BA2775
:100380006E100001C4253A10A53A2C10A53A2C1085
:10039000A53A0000D530723A3A002010C425202733
:1003A000E834653A20226F10C23074004E34E932CE
:1003B00074226F22EB2FC230741DA0127500201022
:1003C000C4252027E834653A20226F10D430740009
:1003D0004E34E93274226F22EB2FD430741DA012F8
:1003E000750062308400831300080319042A063064
:1003F000F800F701F70BFA29F80BF9297B30F70021
:10040000F70B002A800BF72908005B18092A8712CE
:100410000A2A8716AC122C08831687008312DB1871
:10042000132A0712142A07162C122C088316870089
:1004300083125B191D2A88111E2A881583168811BC
:100440008312DB19252A0811262A0815831608119C
:10045000000083120816831608120330F700F70B0A
:100460002F2A831208128316081283120800DC0157
:10047000AC162C088316870000308312871A0130CF
:10048000DC042C162C088316870000308312071A10
:100490000130F7000310F70D7708DC048316881588
:1004A0000030831288190130F700F70DF70DFC308A
:1004B000F7057708DC048316081500308312081945
:1004C0000130F700F70DF70DF70DF830F705770855
:1004D000DC045C08F8000800831608120813881270
:1004E0008312081383160813871607168815081534
:1004F000831288168316881200008312081683164A
:1005000008120000831237227808DB0008128316D5
:100510000812000083120816831608128F2A902AE8
:100520000000831237227808DA00081283160812B6
:100530008312AC122C088316870083122C122C080D
:10054000831687008811081183125B0EF700F030C4
:10055000F70577085A04F8007808DA00DA1FB22A9B
:100560008316742AD808031DB72A0813B82A081757
:100570008316081300008312881283168812000065
:1005800083120812831608128312590EDA000F30F4
:10059000DA055A08DB00052259080F39DA00DB00BA
:1005A000052208002830D0000C30D1000130D200E4
:1005B0000630D3000812831608128312081383161C
:1005C000081383128812831688128312AC122C0827
:1005D0008316870083122C122C088316870088113B
:1005E00008110812081388120F308312E200F1215B
:1005F0000130CF004F08033C031C062B0330DB0007
:1006000005220530E200F121CF0AFA2A0230DB0090
:1006100005220530E200F121CF014F08033C031C05
:100620001D2B50304F07840083130008D400D801DD
:100630005408D9006C22CF0A0D2B0800550B212B32
:10064000242B4030D600252BD60101305402D6078A
:1006500056088038D700D8015708D9006C22080006
:1006600053080C3A03193B2B063A0319432B023A61
:100670000319492B4E2BD8010130D9006C220230CE
:10068000E200F121532B0130D4000230D5001E23AB
:10069000532BD8011030D9006C22532B0130D800D5
:1006A0005308D9006C2208000B08CF008B13831667
:1006B00003178C170C140000000083120313CF1BC8
:1006C0008B1703170C087F390319A82B0313CF00CE
:1006D00003170D080313D00003170F080313D100ED
:1006E0004F08D3003023500803178D00031351081F
:1006F00003178F0003130B08D2008B138316031705
:100700008C170C140000000083120313D21B8B17EC
:1007100003170C0D0E0D7F390319A82B0313CF00FF
:1007200003170D080313D00003170F080313D1009C
:100730004F08D3003023500803178D0003135108CE
:1007400003178F008D0A03198F0A0313542B031705
:10075000031308000B08D0008B13831603178C17A4
:100760000C140000000083120313D01B8B17031816
:10077000E12B03170C087F390313D00003170D0872
:100780000313D10003170F080313D2005008D3003E
:100790003023510803178D000313520803178F00ED
:1007A00003130B08D3008B13831603178C170C1439
:1007B0000000000083120313D31B8B17CF0BE12B18
:1007C000002C03170C0D0E0D7F390313D0000317F7
:1007D0000D080313D10003170F080313D2005008AC
:1007E000D3003023510803178D0003135208031759
:1007F0008F008D0A03198F0A03100313CF0BAA2B46
:1008000008005208F80151020318092C5108F7009A
:10081000152CF7010830D300D10DF70D52087702DF
:100820000318F700F80DD30B0C2C080078084F08BC
:10083000D1006430D20001247708CF00780830302E
:10084000031D292CD01C302CD019302C501A2030EC
:100850002C2CD01150125014F8077808D3003023F4
:100860004F08D1000A30D20001247708CF00780861
:100870003030031D412CD019452C501C452C501AEA
:100880002030F8077808D30030233030CF074F08E6
:10089000D30030230800C8080319552C2B1C552CF5
:1008A0008316081083120814592C8316081083121B
:1008B00008108A110A12B52E49083002031C622C56
:1008C0000130CC0030084A020318CC014C08F80073
:1008D0000800C8080319772CAB1C772C5C24F80897
:1008E0000319772C83168810831288147B2C8316A7
:1008F0008810831288108A110A12B62EAB1F822C20
:10090000AB1A842C2B1F892C83160911831209150D
:100910008D2C83160911831209118A110A12B72E20
:10092000AB1F962C5C24F808031D9C2C2B1B9C2CC5
:10093000AB1FA32CAB1DA32CAC112C088316870076
:1009400083128715A92CAC112C08831687008312FB
:1009500087118A110A12B82E4D08840083134E188D
:10096000831753088000840A8001CD0A0319CE0A38
:1009700008000B08D0008B13831603178C170C1478
:100980000000000083120313D01B8B170318F02CF8
:1009900003170C087F390313D00003170D08031346
:1009A000D10003170F080313D2005008D300AC2462
:1009B000510803178D000313520803178F00031308
:1009C0000B08D3008B13831603178C170C1400002D
:1009D000000083120313D31B8B17CF0BF02C0F2DAA
:1009E00003170C0D0E0D7F390313D00003170D08EC
:1009F0000313D10003170F080313D2005008D300CC
:100A0000AC24510803178D000313520803178F00FD
:100A10008D0A03198F0A03100313CF0BB92C08009A
:100A200078084F08D1006430D20001247708CF0045
:100A300078083030031D232DD01C2A2DD0192A2DE3
:100A4000501A2030262DD01150125014F807780873
:100A5000D300AC244F08D1000A30D200012477081B
:100A6000CF0078083030031D3B2DD0193F2D501C8E
:100A70003F2D501A2030F8077808D300AC243030CE
:100A8000CF074F08D300AC240800800803195A2D63
:100A9000D0010408CF005010831B50140008D3006D
:100AA00030234F088400831350188317840A0319D6
:100AB000850A452D080003081F3983002B14AB1449
:100AC0002B15AB152B16813083169900A630980094
:100AD000903083129800FF30AC00AE01AD01C80128
:100AE0001630C9001230CA00CB01AB120130CC0065
:100AF0002B13AB13CE01CD0183161F149F141F15AA
:100B00009F1107309C008313871107128712FF3053
:100B1000860008108810081188110812881208131E
:100B20008813831288018316850009108910091122
:100B300083128901D2220C30D30030230130D4003B
:100B4000D5001E239A3003178D0001308F00031348
:100B500054230430CF00AF30E200F121CF0BAB2D96
:100B60000C30D300302383168C16C03083128B04D4
:100B7000060800000B108B158B100B168316011343
:100B80000C14B530831290008E018F018E0100008D
:100B900083160108C0390738810083128101D222EF
:100BA000CB08031DFC2E0C30D3003023D201D3011F
:100BB000D401D501D60183160510831205146330C4
:100BC000F700F70BE12DE42D05101930E200F121BB
:100BD0000514831605146330F700F70BED2DF02D87
:100BE0008312051CF72D0030F800472EF92D051C47
:100BF000F72D6330F700F70BFB2DFE2D0518042EA3
:100C00000030F800472E062E0518042ED80158088B
:100C1000043C031C312ED7015708073C031C2F2E20
:100C2000051C102E5330F700F70B142E051C2D2E2B
:100C300052305807840083135708073CF8000130EE
:100C4000F700F8080319282E0310F70DF80B242ECF
:100C500077080004800005182B2ED70A0C2ED80A1E
:100C6000072E5308520754075507D9005608590252
:100C700003193D2E0030F800472E5408B0005508E7
:100C8000B1005208B2005308B3000130F800F80870
:100C900003194A2E0130D400D5001E23A1300317BA
:100CA0008D0001308F00031007300313CF00AA23FB
:100CB0003208CF001B30D00016242C30D300302354
:100CC0003308CF001B30D00016242530D30030234A
:100CD0000130D4000230D5001E23A83003178D0048
:100CE00001308F0003100A300313CF00AA2330080D
:100CF000CF001B30D00016242C30D3003023310815
:100D0000CF001B30D0001624DF30D3003023433017
:100D1000D30030230F30D4000130D5001E23B03073
:100D200003178D0001308F00031004300313CF0030
:100D3000AA234808CF001130D0001624AB1AAD2EDC
:100D40001530D4000130D5001E23B43003178D00B8
:100D500001308F0003135423B42EBB3003178D00D2
:100D600001308F00031354234B2C692C7E2C902CC4
:100D70001530D4000230D5001E23CE013430CD0012
:100D8000C23003178D0001308F00031004300313AD
:100D9000CF00B9244B08CF001B30D00010252C30D9
:100DA000D300AC242030D300AC244908CF001B3042
:100DB000D00010252C30D300AC242030D300AC243C
:100DC0004A08CF001B30D000102534308400831334
:100DD00045252330D4000130D5001E23CA30031727
:100DE0008D0001308F00031354232F08D3003023CC
:100DF0003230E200F1215A2F4B0B2A2F0C30D30056
:100E000030230130D400D5001E23CD3003178D00D0
:100E100001308F00031354230130D4000230D50079
:100E20001E23CE013430CD00D63003178D000130A3
:100E30008F0003100F300313CF00B9244908CF00EF
:100E40001B30D00010253430840083134525323008
:100E5000E200F1214B08023C031D5A2F0C30D30055
:100E600030230130D400D5001E23DF3003178D005E
:100E700001308F00031354230130D4000230D50019
:100E80001E23CE013430CD00E83003178D00013031
:100E90008F0003100F300313CF00B9244A08CF008E
:100EA0001B30D000102534308400831345253230A8
:080EB000E200F121CF2D6300E7
:02400E00323F3F
:00000001FF
;PIC16F877A
;CRC=0633  CREATED="06-Dec-22 20:39"
