:100000000C9462000C9404080C94DD070C948A0094
:100010000C948A000C948A000C948A000C948A0038
:100020000C948A000C948A000C948A000C948A0028
:100030000C948A000C944A090C948A000C948A004F
:100040000C9493070C948A000C9461070C943B0762
:100050000C948A000C948A000C948A000C948A00F8
:100060000C942B080C948A00000000002400270048
:100070002A0000000000250028002B0000000000DE
:1000800023002600290004040404040404040202DA
:100090000202020203030303030301020408102007
:1000A0004080010204081020010204081020000012
:1000B0000008000201000003040700000000000027
:1000C0000000710911241FBECFEFD8E0DEBFCDBF05
:1000D00011E0A0E0B1E0E2E6F0E202C005900D928E
:1000E000A83AB107D9F723E0A8EAB1E001C01D9210
:1000F000A933B207E1F710E0C2E6D0E004C02197CF
:10010000FE010E942910C136D107C9F70E94C20919
:100110000C942F100C94000008950895AF92BF9294
:10012000CF92DF92EF92FF920F931F93CF93DF93C3
:100130006C017B018B01040F151FEB015E01AE18F2
:10014000BF08C017D10759F06991D601ED91FC9114
:100150000190F081E02DC6010995892B79F7C50141
:10016000DF91CF911F910F91FF90EF90DF90CF9093
:10017000BF90AF900895FC01538D448D252F30E042
:10018000842F90E0821B930B541710F0CF960895A4
:1001900001970895FC01918D828D981761F0A28DD1
:1001A000AE0FBF2FB11D5D968C91928D9F5F9F7397
:1001B000928F90E008958FEF9FEF0895FC01918D4D
:1001C000828D981731F0828DE80FF11D858D90E0BA
:1001D00008958FEF9FEF0895FC01918D228D892F57
:1001E00090E0805C9F4F821B91098F73992708953F
:1001F00086E792E00E94EC0021E0892B09F420E0E0
:10020000822F089580E090E0892B29F00E94F80069
:1002100081110C9400000895CF93C1E086E792E02D
:100220000E94EC00892BC1F086E792E00E94CA0090
:10023000813319F4C0930E01F1CF803319F4109279
:100240000E01ECCF823319F4C0930F01E7CF833353
:1002500029F710920F01E2CFCF910895FC01A48DF0
:10026000A80FB92FB11DA35ABF4F2C91848D90E0D8
:1002700001968F739927848FA689B7892C93A089BB
:10028000B1898C91837080648C93938D848D981345
:1002900006C00288F389E02D80818F7D80830895D8
:1002A000EF92FF920F931F93CF93DF93EC0181E0C6
:1002B000888F9B8D8C8D98131AC0E889F98980816D
:1002C00085FF15C09FB7F894EE89FF896083E889A0
:1002D000F98980818370806480839FBF81E090E092
:1002E000DF91CF911F910F91FF90EF900895F62E1F
:1002F0000B8D10E00F5F1F4F0F731127E02E8C8DB9
:100300008E110CC00FB607FCFACFE889F9898081FD
:1003100085FFF5CFCE010E942E01F1CFEB8DEC0FC2
:10032000FD2FF11DE35AFF4FF0829FB7F8940B8F1A
:10033000EA89FB8980818062CFCFCF93DF93EC0184
:10034000888D8823B9F0AA89BB89E889F9898C91BD
:1003500085FD03C0808186FD0DC00FB607FCF7CF79
:100360008C9185FFF2CF808185FFEDCFCE010E9479
:100370002E01E9CFDF91CF910895833081F028F4E9
:10038000813099F08230A9F008958730A9F0883043
:10039000C9F08430B1F4809180008F7D03C08091DA
:1003A00080008F7780938000089584B58F7784BD17
:1003B000089584B58F7DFBCF8091B0008F778093B7
:1003C000B00008958091B0008F7DF9CFCF93DF9377
:1003D000282F30E0F901E255FF4F8491F901E656EC
:1003E000FF4FD491F901EA57FF4FC491CC23A1F0FC
:1003F00081110E94BD01EC2FF0E0EE0FFF1FE458C9
:10040000FF4FA591B491EC91ED2381E090E009F4C8
:1004100080E0DF91CF91089580E090E0FACF1F93C4
:10042000CF93DF93282F30E0F901E255FF4F8491FD
:10043000F901E656FF4FD491F901EA57FF4FC491F5
:10044000CC23A9F0162F81110E94BD01EC2FF0E002
:10045000EE0FFF1FEE58FF4FA591B4918FB7F894A0
:10046000EC91111108C0D095DE23DC938FBFDF9192
:10047000CF911F910895DE2BF8CFCF93DF9390E0BB
:10048000FC01E656FF4F24918A579F4FFC0184914F
:100490008823C9F090E0880F991FFC01E859FF4FAD
:1004A000A591B491FC01EE58FF4FC591D491611113
:1004B0000DC09FB7F8948C91209582238C938881EE
:1004C000282328839FBFDF91CF910895623051F494
:1004D0009FB7F8943C91822F809583238C93E88179
:1004E0002E2BEFCF8FB7F894EC912E2B2C938FBF40
:1004F000EACF3FB7F89480915B0290915C02A091A3
:100500005D02B0915E0226B5A89B05C02F3F19F091
:100510000196A11DB11D3FBFBA2FA92F982F882783
:10052000BC01CD01620F711D811D911D42E0660F5E
:10053000771F881F991F4A95D1F708958F929F9230
:10054000AF92BF92CF92DF92EF92FF924B015C018C
:100550000E9479026B017C010E9479026C197D096D
:100560008E099F09683E734081059105A8F321E03B
:10057000821A9108A108B10888EEC80E83E0D81E3F
:10058000E11CF11C81149104A104B10429F7FF902E
:10059000EF90DF90CF90BF90AF909F908F90089595
:1005A000089508952091E901260F3327331F213242
:1005B0003105ECF420913202FC0190E080E024301F
:1005C00069F082E00895A091E9012191AC014753BF
:1005D0005E4FA40FB52FB11D2C930196861798F38B
:1005E0008091E901680F6093E90180E0089581E05E
:1005F00008951092320281E08093310210920C0231
:1006000061E082E10E940F0261E083E10E940F023B
:10061000E9EBF0E080818E7F808380818D7F808315
:1006200088E48093B80085E48093BC000895CF935C
:10063000DF9391E09093C8018823B9F0C091B8008E
:10064000D091BA008091BC008A7B8093BC0060E0AE
:1006500082E10E940F0260E083E10E940F020E948B
:10066000F902D093BA00C093B800DF91CF910895FA
:100670000895E091660280916502E81730F4F0E099
:10068000E855FE4F808190E008958FEF9FEF089529
:1006900090916602809165022FEF3FEF981748F422
:1006A000E92FF0E0E855FE4F208130E09F5F909306
:1006B0006602C90108958091650290916602891BC6
:1006C000990B0895CF92DF92EF92FF920F931F93B1
:1006D000CF93DF937C01CB018A0120913802222342
:1006E00089F0EB016B01C40ED51ECC15DD0569F058
:1006F0006991D701ED91FC910190F081E02DC70146
:100700000995F3CF642F0E94D202C801DF91CF91E7
:100710001F910F91FF90EF90DF90CF900895CF93AE
:10072000DF931F92CDB7DEB7698320913802222371
:10073000F9F020916302203258F021E030E0FC0112
:100740003383228390E080E00F90DF91CF91089572
:1007500080916402E82FF0E0E75CFD4F998190837F
:100760008F5F809364028093630281E090E0ECCF1E
:1007700061E0CE0101960E94D202F7CFCF92DF92C4
:10078000EF92FF920F931F93CF93DF93FC01C481ED
:1007900021E020933802C093590210926402109213
:1007A00063028485682B83E193E00E948F03D091DC
:1007B0006302D13208F092C00E9479026B017C0181
:1007C00080913202811165C082E08093320281E023
:1007D000809331028FEF8093300210922F02D093DA
:1007E0002E02A9E3B2E0EEE0F2E080E0D81385C08B
:1007F00010920D0280910D02CC0FC82BC0930D02F8
:1008000080910C02813009F07CC010920C020E9491
:1008100079026B017C0180910D028093BB00809175
:10082000340290913502A0913602B0913702892BA3
:100830008A2B8B2B99F00E9479020091340210913F
:10084000350220913602309137026C197D098E09EC
:100850009F090617170728073907E0F18091BC00A8
:1008600083FDD9CF85EC8093BC000E9479026B0197
:100870007C0180913202823009F445C080913002BF
:100880008F3F61F180913002803241F180913002DE
:1008900025C08091340290913502A0913602B0912A
:1008A0003702892B8A2B8B2B09F48ACF0E9479027D
:1008B00000913402109135022091360230913702B6
:1008C0006C197D098E099F09061717072807390734
:1008D00008F076CF809133020E94170310926402D1
:1008E0001092630210923802DF91CF911F910F9105
:1008F000FF90EF90DF90CF9008959D9191938F5F3F
:1009000075CF85EEB0CF8091340290913502A091E1
:100910003602B0913702892B8A2B8B2B09F4A9CF91
:100920000E94790200913402109135022091360222
:10093000309137026C197D098E099F090617170738
:100940002807390708F095CFC5CF90E080E00895DB
:100950000895E99880ED92E090930301809302015D
:1009600082E00E94E601892B21F583E00E94E601E6
:10097000892BD9F78091680290916902019684369B
:10098000910524F590936902809368028091680232
:1009900090916902892BE9F081E08093670282E0FF
:1009A0000E94E601892BD9F383E00E94E601892B9E
:1009B000D9F38CEB96E09093030180930201809130
:1009C0006900837F80936900E99A089583E690E047
:1009D000D9CF10926702E3CFFB0101900020E9F725
:1009E0003197AF01461B570BDC01ED91FC91028062
:1009F000F381E02D09948F929F92AF92BF920F9353
:100A00001F93CF93DF93CDB7DEB7A1970FB6F894BE
:100A1000DEBF0FBECDBF19A2423008F44AE08E01FE
:100A20000F5D1F4F842E912CB12CA12CA501940198
:100A30000E940710E62FB901CA01EA3044F5E05DD3
:100A4000D801EE938D01232B242B252B79F790E0F1
:100A500080E0109769F0FD0101900020E9F73197DF
:100A6000AF014A1B5B0BBD018CE293E00E948E003C
:100A7000A1960FB6F894DEBF0FBECDBFDF91CF9128
:100A80001F910F91BF90AF909F908F900895E95C58
:100A9000D7CFEF92FF921F93CF93DF9361E08091C6
:100AA00025030E940F026AEF70E080E090E00E9450
:100AB0009E022FB7F8948091720290917302A091D8
:100AC0007402B09175022FBF409127035091280303
:100AD0006091290370912A0384179507A607B70729
:100AE00040F41092270310922803109229031092C9
:100AF0002A0320912B03211118C040912703509104
:100B000028036091290370912A03841B950BA60B7F
:100B1000B70B803D9740A105B10538F481E0DF9126
:100B2000CF911F91FF90EF90089510922B032FB754
:100B3000F8948091720290917302A0917402B09126
:100B400075022FBF8093270390932803A093290356
:100B5000B0932A03109223031092220310922103D0
:100B60001092200310921F0361E0809125030E94E0
:100B70003D0260E0809125030E940F0264E170E075
:100B800080E090E00E949E02F89461E0809125034D
:100B90000E940F028BE990E00197F1F760E08091ED
:100BA00025030E943D0210E081E0C0E0D0E0E82E85
:100BB000F12C809125030E94E6018E159F0519F402
:100BC000DF5FDF3FB1F7809125030E94E601DF3F41
:100BD000A1F0C43078F0C0FD0DC0E12FE695E69598
:100BE000E695F0E0E15EFC4F9081990FD73008F573
:100BF00090831F5FCF5FC535C9F678941832B8F07F
:100C00004091230320911F0380912003280F332755
:100C1000331F80912103280F311D80912203820F01
:100C2000932F911D99274817190609F477CF80E073
:100C300076CF9160DDCF0F931F93CF938C01C62F9A
:100C40000E94BE036C2F6460C8010E94BE036C2F1B
:100C50006B7FC8010E94BE0383EC90E00197F1F71F
:100C6000CF911F910F9108950F931F93CF93DF930F
:100C70008C01D62FC42F607F642B0E941B0680E15D
:100C8000D89FB00111246C2BC801DF91CF911F9127
:100C90000F910C941B06CF93DF93CDB7DEB7289747
:100CA0000FB6F894DEBF0FBECDBF98E0E6E1F1E0ED
:100CB000DE01119601900D929A95E1F7909134031F
:100CC000961708F46FEF262F30E0220F331F41E014
:100CD00050E04C0F5D1F240F351FF9016081680F34
:100CE000606840E08CE293E028960FB6F894DEBF8F
:100CF0000FBECDBFDF91CF910C94340640E061E090
:100D00008CE293E00E9434068BE39FE10197F1F7B8
:100D100080913503882321F060E080E00C944B063D
:100D2000089541E00E94340681E090E00895CF925A
:100D3000DF92EF92FF9297FF18C06B017C0141E0B8
:100D40006DE28CE293E00E94340666277727CB01A0
:100D50006C197D098E099F094AE00E94FB040196E7
:100D6000FF90EF90DF90CF9008954AE0FF90EF90D2
:100D7000DF90CF900C94FB04E89880ED92E0909384
:100D800001018093000183E00E94E601892B21F597
:100D900082E00E94E601892BD9F780916802909148
:100DA000690201971816190624F590936902809339
:100DB00068028091680290916902892B09F181E0B3
:100DC0008093670283E00E94E601892BD9F382E0D9
:100DD0000E94E601892BD9F389EA94E090930101FE
:100DE00080930001809169008C7F80936900E89A6C
:100DF000089510926902109268020C940000D9CFF5
:100E000010926702DFCF85ED8093BC0080913402A1
:100E100090913502A0913602B09137020796A11D3C
:100E2000B11D23E0B695A795979587952A95D1F79B
:100E30002091BC0024FD03C010923202089540911D
:100E40003402509135026091360270913702452B81
:100E5000462B472B69F30097A105B10541F025E327
:100E60002A95F1F700000197A109B109E1CF80911E
:100E700033020C9417031F920F920FB60F92112496
:100E80002F933F934F935F936F937F938F939F9392
:100E9000AF93BF93EF93FF9386E792E00E942E01FA
:100EA000FF91EF91BF91AF919F918F917F916F9142
:100EB0005F914F913F912F910F900FBE0F901F9018
:100EC00018951F920F920FB60F9211242F938F93A4
:100ED0009F93EF93FF93E0918602F09187028081C8
:100EE000E0918C02F0918D0282FD1BC09081809177
:100EF0008F028F5F8F7320919002821741F0E091F3
:100F00008F02F0E0EA58FD4F958F80938F02FF919A
:100F1000EF919F918F912F910F900FBE0F901F9087
:100F200018958081F4CF1F920F920FB60F92112463
:100F30002F933F938F939F93AF93BF9380917202B0
:100F400090917302A0917402B091750230915A028F
:100F500023E0230F2D3758F50196A11DB11D2093D5
:100F60005A028093720290937302A0937402B0931A
:100F7000750280915B0290915C02A0915D02B0913C
:100F80005E020196A11DB11D80935B0290935C02ED
:100F9000A0935D02B0935E02BF91AF919F918F913C
:100FA0003F912F910F900FBE0F901F90189526E83C
:100FB000230F0296A11DB11DD2CF1F920F920FB623
:100FC0000F9211242F933F934F935F936F937F93CF
:100FD0008F939F93AF93BF93EF93FF93E0910201A1
:100FE000F09103010995FF91EF91BF91AF919F910E
:100FF0008F917F916F915F914F913F912F910F90C2
:101000000FBE0F901F9018951F920F920FB60F9260
:1010100011242F933F934F935F936F937F938F93FD
:101020009F93AF93BF93EF93FF93E0910001F091F3
:1010300001010995FF91EF91BF91AF919F918F9120
:101040007F916F915F914F913F912F910F900FBEC4
:101050000F901F9018951F920F920FB60F921124A8
:101060002F933F934F935F936F937F938F939F93B0
:10107000AF93BF93EF93FF938091B900887F803641
:1010800009F44AC0F0F5883209F4A7C018F5803198
:1010900009F49BC0B8F4882309F4F9C0883009F436
:1010A00094C0FF91EF91BF91AF919F918F917F91EC
:1010B0006F915F914F913F912F910F900FBE0F90C5
:1010C0001F901895883109F488C0803251F78093B9
:1010D000300214C0803409F49DC040F48033B9F369
:1010E0008833F9F68093300285ECB0C0803509F47E
:1010F00085C0883509F496C0883499F60E940307A4
:10110000D0CF883909F48CC038F5883729F050F4ED
:10111000883611F0803729F683E0809332021092EE
:101120000B0257C0883809F47BC0803919F0803829
:1011300009F0B7CF80910B02803208F071C0E091C6
:101140000B0281E08E0F80930B028091BB00F0E0D8
:10115000E551FE4F80833DC0803B39F0E0F4803A9A
:1011600009F479C0883A09F09CCF84E08093320278
:101170001092EA011092E901E0916102F09162029D
:1011800009958091E90181110FC081E08093E90107
:101190001092C90109C0803C09F4A6CF883C09F42B
:1011A000A3CF883B09F07DCFE091EA0181E08E0F6B
:1011B0008093EA01F0E0E753FE4F80818093BB000B
:1011C0009091EA018091E90129C080910D028093FC
:1011D000BB0085EC8093BC0064CF90912F0280917E
:1011E0002E02981758F5E0912F0281E08E0F809320
:1011F0002F02F0E0E25FFD4F8081E9CFE0912F0206
:1012000081E08E0F80932F028091BB00F0E0E25FBF
:10121000FD4F808390912F0280912E029817C8F283
:1012200085E8D8CFE0912F0281E08E0F80932F02C6
:101230008091BB00F0E0E25FFD4F8083809131023E
:1012400081115CCF81E080930C0284EA8093BC0022
:101250001092320226CF85EC8093BC0010923202AD
:1012600080910B02803230F4E0910B02F0E0E55106
:10127000FE4F108260910B0270E0E0915F02F091EE
:1012800060028BEE91E0099510920B020ACF10924A
:10129000300234CF1F920F920FB60F9211242F936A
:1012A0003F934F935F936F937F938F939F93AF93EE
:1012B000BF93EF93FF93E0910401F091050109952D
:1012C000FF91EF91BF91AF919F918F917F916F911E
:1012D0005F914F913F912F910F900FBE0F901F90F4
:1012E0001895E6E7F2E01382128288EE93E0A0E020
:1012F000B0E084839583A683B78322E231E0318313
:10130000208325EC30E03587248724EC30E03787D4
:10131000268720EC30E0318B208B21EC30E0338BC2
:10132000228B22EC30E0358B248B26EC30E0378B9F
:10133000268B118E128E138E148EE3E1F3E013824E
:10134000128284839583A683B78384E391E091839B
:101350008083ECE2F3E01382128286E491E09183D1
:101360008083118687E2848380E1828782E083879D
:101370001486EFE1F3E08CE086838BE0878381E0E5
:1013800084870895789484B5826084BD84B5816033
:1013900084BD85B5826085BD85B5816085BD809140
:1013A0006E00816080936E001092810080918100B8
:1013B00082608093810080918100816080938100B0
:1013C000809180008160809380008091B100846072
:1013D0008093B1008091B00081608093B0008091D3
:1013E0007A00846080937A0080917A008260809392
:1013F0007A0080917A00816080937A0080917A00EF
:10140000806880937A001092C100E0918602F0918A
:10141000870282E08083E0918202F0918302108251
:10142000E0918402F09185028FEC808310928E020D
:10143000E0918A02F0918B0286E08083E09188023D
:10144000F0918902808180618083E0918802F0912F
:101450008902808188608083E0918802F09189020E
:10146000808180688083E0918802F0918902808188
:101470008F7D808310926602109265021092640242
:10148000109263020E94F9028CE890E0909362024D
:10149000809361028DE890E09093600280935F02F8
:1014A0001092310380913703823018F098E09093C6
:1014B00031038093340362E370E080E090E00E94A7
:1014C0009E02609138038CE293E00E94BE0368EEB6
:1014D00073E080E090E00E949E0260E38CE293E083
:1014E0000E941B06CBE4D6E4CE010197F1F760E33E
:1014F0008CE293E00E941B062197F1F760E38CE2F7
:1015000093E00E941B0683E592E00197F1F760E209
:101510008CE293E00E941B0660913103606240E020
:101520008CE293E00E94340684E08093320340E032
:101530006CE08CE293E00E9434060E947E0682E01A
:101540008093330340E066E08CE293E00E9434062F
:1015500040E062E08CE293E00E9434068BE39FE17E
:101560000197F1F788E08093380360E08CE293E024
:101570000E94BE0360E080E00E944B066EE471E0D2
:101580008CE293E00E94EC0440E068E48CE293E09B
:101590000E943406C6E0D1E00EE011E069918CE2D1
:1015A00093E00E9491060C171D07C1F760E082E0EE
:1015B0000E943D0260E083E00E943D0261E08DE018
:1015C0000E943D0261E08BE00E943D0262E08AE001
:1015D0000E943D0262E089E00E943D0262E088E0F4
:1015E0000E943D0289EA94E09093010180930001FA
:1015F000809169008C7F80936900E89A8CEB96E07B
:10160000909303018093020180916900837F80930E
:101610006900E99A80E1809381001092800080EC5B
:101620009DE5909387008093860081E180938100FF
:101630008CE091E0909305018093040181E0809318
:101640006F00C0E0D0E011E08AE00E94E601892B43
:10165000C1F4009115016AE070E080E090E00E9422
:101660009E028AE00E94E601892B31F40E947E06E8
:10167000002319F1109215018AE00E94E601892BDE
:10168000D9F380911501882309F4AEC10E94490560
:10169000882341F0809126038B3091F018F085511A
:1016A0008230A8F164E571E086E792E00E94EC04E4
:1016B00060E070E080EC9FE70AC010931501DCCF7A
:1016C00060911F0370E090E080E00E94E30E609361
:1016D0006E0270936F0280937002909371020E9469
:1016E0004905882349F0809126038B3089F120F049
:1016F0008551823008F42EC164E571E086E792E0FE
:101700000E94EC0460E070E080EC9FE728C06091EC
:101710001F0370E090E080E00E94E30E20E030E0E4
:1017200040E853E40E949A0F6B017C016091200312
:1017300070E090E080E00E94E50EA70196010E9413
:10174000CA0D20E030E040E251E40E943B0EBFCFE2
:101750006091210370E090E080E00E94E30E6093CE
:101760006A0270936B0280936C0290936D0261E049
:1017700080E00E944B066EE571E08CE293E00E94EF
:10178000EC0461E082E00E944B0660916802709177
:101790006902072E000C880B990B0E949706809116
:1017A0006802909169020A9754F461E083E00E9414
:1017B0004B0668E671E08CE293E00E94EC0460E086
:1017C00080E00E944B0661E671E08CE293E00E94AB
:1017D000EC0460E082E00E944B06C0906A02D09068
:1017E0006B02E0906C02F0906D0220E030E0A90105
:1017F000C701B6010E94950F20E030E040E05FE3B2
:1018000087FDCEC0C701B6010E94CA0D0E94AD0E71
:101810000E94970660E084E00E944B0668E671E053
:101820008CE293E00E94EC0461E08CE293E00E9481
:10183000910664E671E08CE293E00E94EC0460E0C3
:1018400089E00E944B066AE671E08CE293E00E9418
:10185000EC0460E08CE00E944B06C0906E02D090D9
:101860006F02E0907002F090710220E030E0A90178
:10187000C701B6010E94950F20E030E040E05FE331
:1018800087FD93C0C701B6010E94CA0D0E94AD0E2C
:101890000E94970660E08EE00E944B066DE671E0C4
:1018A0008CE293E00E94EC048091670261E088235F
:1018B00009F480C080910E01882309F47BC085E083
:1018C0000E944B0660E771E08CE293E00E94EC041A
:1018D00061E08DE00E940F02209111013091120110
:1018E000409113015091140160916A0270916B0252
:1018F00080916C0290916D020E94950F87FD65C0EA
:101900001093100180916702882309F461C08091CF
:101910001001882309F45CC080910F01882309F429
:1019200057C061E08BE00E944B066CE771E08CE2EF
:1019300093E00E94EC0461E08BE00E940F0220978C
:1019400009F482CE0E94F800882309F47DCE0E941B
:1019500000007ACE00912103602F6F7770E090E055
:1019600080E00E94E50E20E030E040E853E40E9471
:101970009A0F6B017C016091220370E090E080E09F
:101980000E94E50EA70196010E94CA0D20E030E0FA
:1019900040E251E40E943B0E07FFE1CE9058DFCEBB
:1019A000C701B6010E94C90D31CFC701B6010E941F
:1019B000C90D6CCF85E00E944B0666E771E08CE2B2
:1019C00093E00E94EC0460E084CF109210019ACF63
:1019D00061E08BE00E944B0662E871E08CE293E0EC
:1019E0000E94EC0460E0A8CF89E00E94E601892B08
:1019F00081F56AE070E080E090E00E949E0289E05C
:101A00000E94E601892B01F520E030E040E85FE329
:101A10006091110170911201809113019091140154
:101A20000E94CA0D6B017C0120E030E048E452E4E2
:101A30000E94950F87FF8EC0C0921101D0921201B3
:101A4000E0921301F092140189E00E94E601892BD3
:101A5000D9F388E00E94E601892B89F56AE070E0FD
:101A600080E090E00E949E0288E00E94E601892BBF
:101A700009F520E030E040E85FE3609111017091EA
:101A8000120180911301909114010E94C90D6B0104
:101A90007C0120E030E040E251E40E94360E18164E
:101AA0000CF065C0C0921101D0921201E0921301B6
:101AB000F092140188E00E94E601892BD9F360E0DE
:101AC00080E00E944B0668E871E08CE293E00E949F
:101AD000EC0461E080E00E944B0668E971E08CE272
:101AE00093E00E94EC0461E08AE00E944B06C09003
:101AF0001101D0901201E0901301F090140120E048
:101B000030E0A901C701B6010E94950F20E030E046
:101B100040E05FE387FD38C0C701B6010E94CA0DEF
:101B20000E94AD0E0E94970661E08CE00E944B0679
:101B300068E671E08CE293E00E94EC0461E08CE2E4
:101B400093E00E94910663EA71E08CE293E00E94C8
:101B5000EC04F5CE80E090E0A8E4B2E480931101BB
:101B600090931201A0931301B09314016DCF80E004
:101B700090E0A0E2B1E48093110190931201A09350
:101B80001301B093140196CFC701B6010E94C90D8D
:101B9000C7CF5058BB27AA270E94E10D0C945B0FBA
:101BA0000E944D0F38F00E94540F20F039F49F3FEF
:101BB00019F426F40C944A0F0EF4E095E7FB0C940C
:101BC000440FE92F0E946C0F58F3BA17620773078E
:101BD0008407950720F079F4A6F50C948E0F0EF487
:101BE000E0950B2EBA2FA02D0B01B90190010C012D
:101BF000CA01A0011124FF27591B99F0593F50F445
:101C0000503E68F11A16F040A22F232F342F44279C
:101C1000585FF3CF469537952795A795F040539594
:101C2000C9F77EF41F16BA0B620B730B840BBAF064
:101C30009150A1F0FF0FBB1F661F771F881FC2F7CF
:101C40000EC0BA0F621F731F841F48F487957795E3
:101C50006795B795F7959E3F08F0B0CF9395880F9D
:101C600008F09927EE0F9795879508950E94200F09
:101C700008F481E008950E944F0E0C945B0F0E94BF
:101C8000540F58F00E944D0F40F029F45F3F29F0A7
:101C90000C94440F51110C948F0F0C944A0F0E9416
:101CA0006C0F68F39923B1F3552391F3951B550BF2
:101CB000BB27AA2762177307840738F09F5F5F4F1F
:101CC000220F331F441FAA1FA9F335D00E2E3AF05E
:101CD000E0E832D091505040E695001CCAF72BD076
:101CE000FE2F29D0660F771F881FBB1F26173707C7
:101CF0004807AB07B0E809F0BB0B802DBF01FF27F9
:101D000093585F4F3AF09E3F510578F00C94440F82
:101D10000C948F0F5F3FE4F3983ED4F3869577954C
:101D20006795B795F7959F5FC9F7880F911D9695B1
:101D3000879597F90895E1E0660F771F881FBB1F0D
:101D4000621773078407BA0720F0621B730B840BBA
:101D5000BA0BEE1F88F7E09508950E94B40E6894C0
:101D6000B1110C948F0F08950E94740F88F09F5743
:101D700098F0B92F9927B751B0F0E1F0660F771FAF
:101D8000881F991F1AF0BA95C9F714C0B13091F0A5
:101D90000E948E0FB1E008950C948E0F672F782F5C
:101DA0008827B85F39F0B93FCCF38695779567956A
:101DB000B395D9F73EF490958095709561957F4FD6
:101DC0008F4F9F4F0895E89409C097FB3EF490957C
:101DD0008095709561957F4F8F4F9F4F9923A9F004
:101DE000F92F96E9BB279395F69587957795679593
:101DF000B795F111F8CFFAF4BB0F11F460FF1BC0D7
:101E00006F5F7F4F8F4F9F4F16C0882311F096E969
:101E100011C0772321F09EE8872F762F05C0662317
:101E200071F096E8862F70E060E02AF09A95660FD0
:101E3000771F881FDAF7880F9695879597F9089589
:101E4000990F0008550FAA0BE0E8FEEF16161706CB
:101E5000E807F907C0F012161306E407F50798F033
:101E6000621B730B840B950B39F40A2661F0232B4C
:101E7000242B252B21F408950A2609F4A140A695C8
:101E80008FEF811D811D089597F99F6780E870E0AD
:101E900060E008959FEF80EC089500240A941616E0
:101EA000170618060906089500240A941216130648
:101EB000140605060895092E0394000C11F48823D6
:101EC00052F0BB0F40F4BF2B11F460FF04C06F5FF2
:101ED0007F4F8F4F9F4F089557FD9058440F551FC8
:101EE00059F05F3F71F04795880F97FB991F61F09C
:101EF0009F3F79F087950895121613061406551F13
:101F0000F2CF4695F1DF08C0161617061806991F7E
:101F1000F1CF86957105610508940895E894BB2773
:101F200066277727CB0197F908950E94200F08F4C0
:101F30008FEF08950E94AD0F0C945B0F0E944D0F20
:101F400038F00E94540F20F0952311F00C94440FA8
:101F50000C944A0F11240C948F0F0E946C0F70F395
:101F6000959FC1F3950F50E0551F629FF001729F3E
:101F7000BB27F00DB11D639FAA27F00DB11DAA1F4D
:101F8000649F6627B00DA11D661F829F2227B00D9A
:101F9000A11D621F739FB00DA11D621F839FA00D25
:101FA000611D221F749F3327A00D611D231F849F75
:101FB000600D211D822F762F6A2F11249F575040CC
:101FC0009AF0F1F088234AF0EE0FFF1FBB1F661F47
:101FD000771F881F91505040A9F79E3F510580F010
:101FE0000C94440F0C948F0F5F3FE4F3983ED4F3AE
:101FF000869577956795B795F795E7959F5FC1F7B4
:10200000FE2B880F911D9695879597F90895A1E26B
:102010001A2EAA1BBB1BFD010DC0AA1FBB1FEE1F62
:10202000FF1FA217B307E407F50720F0A21BB30BAD
:10203000E40BF50B661F771F881F991F1A9469F729
:1020400060957095809590959B01AC01BD01CF0185
:102050000895EE0FFF1F0590F491E02D0994F89478
:02206000FFCFB0
:10206200D002D002A8040E0A0E00000000000101F6
:10207200010000D84101000040001400540000009B
:10208200000050018E00BB009D01EC00CA00DE0082
:10209200000000008F036203A50438035B034803BA
:1020A20039030000000091068E00A504D1024865A4
:1020B2006C6C6F0052656164206661696C004E3D14
:1020C20000543D00432020202000483D00202500F0
:1020D2004C3D626174004C3D74617400513D62611B
:1020E2007400513D74617400444B20545F4E686922
:1020F2006574446F5F444B004E68696574446F2099
:082102003D20004320200000F5
:00000001FF
