:1000000005308A006C2D0000FF00030E8301A10063
:100010000A08A0008A010408A2007708A300780853
:10002000A4007908A5007A08A60003170D08031399
:10003000A70003170F080313A80003170C080313E6
:10004000A90003170E080313AA00831383128B1D44
:100050002B280B1860280B1E2F288B1863288C3038
:100060008400801E35288C1A66288C308400001C81
:100070003B280C1869288B1E3F280B196C28220876
:1000800084002308F7002408F8002508F900260852
:10009000FA00270803178D000313280803178F00A1
:1000A0000313290803178C0003132A0803178E0073
:1000B000031320088A00210E8300FF0E7F0E090023
:1000C0008A110A128E288A110A121E298A110A120E
:1000D000C0288A110A124B298A110A1283294B0B54
:1000E0007328C90A7C284B08023C031D7C28013078
:1000F00049024A02031DCA0A08004B0B8528013039
:100100004A074902031DC9038D284B08023C031D01
:100110008D284A08003C031CCA030800060800009A
:100120000B10861B9A28861F9328CB0A4B08023C8B
:10013000031CCB01061AA528061E9C28CB08031D0C
:10014000A4280130AB06A5286F20861AB028861E89
:10015000A728CB08031DAF280230AB06B0287D20AE
:10016000061BBC28061FB2280130CC064C18BC2840
:1001700083160910831209100B108A110A123F28E6
:100180008C1EC0281A08AF002F08733A0319F328F1
:10019000073A0319F928133A0319FB28563A0319A9
:1001A000FD28033A0319FF28013A03190129073AE8
:1001B00003190329013A03190529033A03190729E9
:1001C000013A03190F290F3A03191129013A0319AA
:1001D0001329093A03191529513A03191729033A22
:1001E000031919291A29CB0A4B08023C031CCB011D
:1001F0001A296F201A297D201A292B141A292B104D
:100200001A29AB141A29AB101A294C141A294C10AC
:10021000091C0E2983160910831209101A292B159F
:100220001A292B111A29AB151A29AB111A292B16C9
:100230001A292B128C128A110A123F288B10861849
:1002400030290B124C1C2C29831609108312091417
:10025000AE01AD018B16810106192C29C80A462969
:10026000061946290B124C1C3D29831609108312CE
:100270000914AE01AD018B16810186183D2948088D
:10028000013C031C4529C8014629C8030B168B10E5
:100290008A110A123F280C10051D50298519522970
:1002A000AB165329AB12051E57292B1E5C2983164A
:1002B0008910831289146429051E64292B1A642964
:1002C0008316891083128910851A68292B176929CA
:1002D0002B1307186F29071C6B290430AB068718EE
:1002E0007529871C71290830AB0607197B29071D62
:1002F00077291030AB068E018F018E0100000C10A3
:100300008A110A123F280B11AD0A0319AE0A2D08F3
:10031000FC3C031D9A292E08083C031D9A29AE01B6
:10032000AD014C1C9A29091C9A29831609108312C5
:1003300009108B1281010B118A110A123F28CD3C42
:100340002028F237EA32633AA0190000C437A0200F
:100350006D1DA0127516A53A00004E34E9327410D6
:10036000C4373A10A53AAC127500D3374E1D251983
:100370007500C2306F10C437EE33BA2766332000E1
:10038000C2306F10C437EE33BA276E1000015439F3
:1003900065373A10A53A2C10C43AEF343A10A53A12
:1003A0000000D530723A3A002010C4252027E834E6
:1003B000653A20226F10C23074004E34E932742244
:1003C0006F22EB2FC230741DA01275002010C425BF
:1003D0002027E834653A20226F10D43074004E3460
:1003E000E93274226F22EB2FD430741DA0127500F5
:1003F000633084008313000803190B2A0630F800C9
:10040000F701F70B012AF80B002A7B30F700F70BF6
:10041000072A800BFE2908005C18102A8712112A6F
:100420008716AC122C08831687008312DC181A2A50
:1004300007121B2A07162C122C088316870083121A
:100440005C19242A8811252A88158316881183129D
:10045000DC192C2A08112D2A081583160811000012
:1004600083120816831608120330F700F70B362A9A
:10047000831208128316081283120800DD01AC16DD
:100480002C088316870000308312871A0130DD04A0
:100490002C162C088316870000308312071A0130AF
:1004A000F7000310F70D7708DD0483168815003078
:1004B000831288190130F700F70DF70DFC30F705AE
:1004C0007708DD04831608150030831208190130FF
:1004D000F700F70DF70DF70DF830F7057708DD0495
:1004E0005D08F800080083160812081388128312AA
:1004F0000813831608138716071688150815831224
:1005000088168316881200008312081683160812B4
:10051000000083123E227808DC00081283160812BD
:1005200000008312081683160812962A972A0000E4
:1005300083123E227808DB00081283160812831209
:10054000AC122C088316870083122C122C088316F9
:1005500087008811081183125C0EF700F030F70550
:1005600077085B04F8007808DB00DB1FB92A8316E4
:100570007B2AD908031DBE2A0813BF2A0817831631
:100580000813000083128812831688120000831259
:1005900008128316081283125A0EDB000F30DB0597
:1005A0005B08DC000C225A080F39DB00DC000C224F
:1005B00008002830D1000C30D2000130D3000630C2
:1005C000D400081283160812831208138316081326
:1005D00083128812831688128312AC122C08831699
:1005E000870083122C122C088316870088110811AB
:1005F0000812081388120F308312E300F82101302B
:10060000D0005008033C031C0D2B0330DC000C22EF
:100610000530E300F821D00A012B0230DC000C2267
:100620000530E300F821D0015008033C031C242BC3
:1006300051305007840083130008D500D9015508B4
:10064000DA007322D00A142B0800560B282B2B2B10
:100650004030D7002C2BD70101305502D70757085F
:100660008038D800D9015808DA00732208005408ED
:100670000C3A0319422B063A03194A2B023A031982
:10068000502B552BD9010130DA0073220230E300E0
:10069000F8215A2B0130D5000230D60025235A2BE1
:1006A000D9011030DA0073225A2B0130D9005408D6
:1006B000DA00732208000B08D0008B13831603178F
:1006C0008C170C140000000083120313D01B8B172F
:1006D00003170C087F390319AF2B0313D00003173E
:1006E0000D080313D10003170F080313D20050089D
:1006F000D4003723510803178D0003135208031742
:100700008F0003130B08D3008B13831603178C176A
:100710000C140000000083120313D31B8B17031764
:100720000C0D0E0D7F390319AF2B0313D0000317E7
:100730000D080313D10003170F080313D20050084C
:10074000D4003723510803178D00031352080317F1
:100750008F008D0A03198F0A03135B2B03170313F2
:1007600008000B08D1008B13831603178C170C1489
:100770000000000083120313D11B8B170318E82B12
:1007800003170C087F390313D10003170D08031357
:10079000D20003170F080313D3005108D4003723E6
:1007A000520803178D000313530803178F00031318
:1007B0000B08D4008B13831603178C170C1400003E
:1007C000000083120313D41B8B17D00BE82B072CCC
:1007D00003170C0D0E0D7F390313D10003170D08FD
:1007E0000313D20003170F080313D3005108D400DA
:1007F0003723520803178D000313530803178F0084
:100800008D0A03198F0A03100313D00BB12B0800B4
:100810005308F80152020318102C5208F7001C2C40
:10082000F7010830D400D20DF70D530877020318F2
:10083000F700F80DD40B132C080078085008D200EC
:100840006430D30008247708D00078083030031DC6
:10085000302CD11C372CD119372C511A2030332C85
:10086000D11151125114F8077808D40037235008D9
:10087000D2000A30D30008247708D000780830303E
:10088000031D482CD1194C2C511C4C2C511A2030D2
:10089000F8077808D40037233030D0075008D40048
:1008A00037230800C80803195C2C2B1C5C2C83160A
:1008B000081083120814602C831608108312081085
:1008C0008A110A12C42EC80803197C2CAB1C7C2C7C
:1008D00049083002031C6E2C0130CD0030084A025A
:1008E0000318CD014D08F800F80803197C2C831675
:1008F000881083128814802C831688108312881025
:100900008A110A12C52E2B1F872C4C18892CAB1E5E
:100910008E2C8316091183120915922C8316091146
:10092000831209118A110A12C62E2B1B992C2B1D1A
:100930009E2C8316881383128817A62C2B1BA62C9B
:100940002B19A62C83168813831288138A110A1276
:10095000C72EAB1AAD2CAB1DB42CAC112C088316D2
:10096000870083128715BA2CAC112C0883168700D8
:10097000831287118A110A12C82E4E08840083132D
:100980004F18831754088000840A8001CE0A031987
:10099000CF0A08000B08D1008B13831603178C179E
:1009A0000C140000000083120313D11B8B170318D3
:1009B000012D03170C087F390313D10003170D080D
:1009C0000313D20003170F080313D3005108D400F8
:1009D000BD24520803178D000313530803178F001B
:1009E00003130B08D4008B13831603178C170C14F6
:1009F0000000000083120313D41B8B17D00B012DB2
:100A0000202D03170C0D0E0D7F390313D100031792
:100A10000D080313D20003170F080313D300510866
:100A2000D400BD24520803178D0003135308031785
:100A30008F008D0A03198F0A03100313D00BCA2CE1
:100A4000080078085008D2006430D30008247708E2
:100A5000D00078083030031D342DD11C3B2DD11926
:100A60003B2D511A2030372DD11151125114F80756
:100A70007808D400BD245008D2000A30D3000824DE
:100A80007708D00078083030031D4C2DD119502D37
:100A9000511C502D511A2030F8077808D400BD247D
:100AA0003030D0075008D400BD2408008008031956
:100AB0006B2DD1010408D0005110831B5114000884
:100AC000D400372350088400831351188317840AF5
:100AD0000319850A562D080003081F3983002B14BB
:100AE000AB142B11AB112B12AB122B13AB138130A8
:100AF00083169900A6309800903083129800FF303A
:100B0000AC00AE01AD01C8011630C9001230CA00F8
:100B1000CB014C100130CD00CF01CE0183161F1444
:100B20009F141F159F1107309C0083138711071214
:100B30008712FF30860008108810081188110812EB
:100B40008812081388138312880183168500091000
:100B50008910091183128901D9220C30D40037235E
:100B60000130D500D60025239F3003178D000130BA
:100B70008F0003135B230430D000AF30E300F82173
:100B8000D00BBD2D0C30D400372383168C16C0300B
:100B900083128B04060800000B108B158B100B16AC
:100BA000831601130C14B530831290008E018F014F
:100BB0008E01000083160108C039073881008312B6
:100BC0008101D922CB08031D052F0C30D400372317
:100BD000D301D401D501D601D701831605108312A4
:100BE00005146330F700F70BF32DF62D05101930BF
:100BF000E300F8210514831605146330F700F70BA2
:100C0000FF2D022E8312051C092E0030F800592EEC
:100C10000B2E051C092E6330F700F70B0D2E102E3E
:100C20000518162E0030F800592E182E0518162E0D
:100C3000D9015908043C031C432ED8015808073C2D
:100C4000031C412E051C222E5330F700F70B262ED5
:100C5000051C3F2E53305907840083135808073C66
:100C6000F8000130F700F80803193A2E0310F70DC9
:100C7000F80B362E77080004800005183D2ED80AA0
:100C80001E2ED90A192E5408530755075607DA00A5
:100C900057085A0203194F2E0030F800592E5508F4
:100CA000B0005608B1005308B2005408B300013038
:100CB000F8000130D500D6002523A63003178D009B
:100CC00001308F00031007300313D000B123320826
:100CD000D0001B30D1001D242C30D4003723330822
:100CE000D0001B30D1001D242530D4003723013023
:100CF000D5000230D6002523AD3003178D0001301A
:100D00008F0003100A300313D000B1233008D00045
:100D10001B30D1001D242C30D40037233108D000E3
:100D20001B30D1001D24DF30D40037234330D400E2
:100D300037230F30D5000130D6002523B5300317F7
:100D40008D0001308F00031004300313D000B12355
:100D50004808D0001130D1001D244C18BC2E15308D
:100D6000D5000130D6002523B93003178D0001309E
:100D70008F0003135B23C32EC03003178D00013097
:100D80008F0003135B23522C632C832C952CA92CEE
:100D90001530D5000230D6002523CF013430CE00E7
:100DA000C73003178D0001308F0003100630031386
:100DB000D000CA244908D0001B30D1002125CB30F7
:100DC00003178D0001308F00031008300313D0008B
:100DD000CA244A08D0001B30D100212534308400B9
:100DE000831356252330D5000130D6002523D1307A
:100DF00003178D0001308F0003135B232F08D400ED
:100E000037236F30E300F821632F4B0B332F0C3067
:100E1000D40037230130D500D6002523D430031762
:100E20008D0001308F0003135B230130D5000230A9
:100E3000D6002523CF013430CE00DD3003178D00DE
:100E400001308F0003100F300313D000CA2449086B
:100E5000D0001B30D1002125343084008313562567
:100E60006430E300F8214B08023C031D632F0C3073
:100E7000D40037230130D500D6002523E6300317F0
:100E80008D0001308F0003135B230130D500023049
:100E9000D6002523CF013430CE00EF3003178D006C
:100EA00001308F0003100F300313D000CA244A080A
:100EB000D0001B30D1002125343084008313562507
:0A0EC0006430E300F821E12D630027
:02400E00323F3F
:00000001FF
;PIC16F877A
;CRC=6182  CREATED="11-Jan-23 10:54"
