:1000000003308A00512B0000FF00030E8301A10082
:100010000A08A0008A010408A2007708A300780853
:10002000A4007908A5007A08A60003170D08031399
:10003000A70003170F080313A80003170C080313E6
:10004000A90003170E080313AA00831383120B1EC3
:100050002B288B184C28220884002308F70024083A
:10006000F8002508F9002608FA00270803178D0074
:100070000313280803178F000313290803178C00A4
:1000800003132A0803178E00031320088A00210E89
:100090008300FF0E7F0E09008A110A124F288B1071
:1000A000861857280B1206195328C50A6328061903
:1000B00063280B1286185A284508013C031C622845
:1000C000C5016328C5030B168B108A110A122B2851
:1000D000D2224122492747104424D4183100C42792
:1000E000A0206D1DA0127516A53A00004E24C9224D
:1000F000541044183A10A53AAC12750051308400DF
:1001000083130008031991280630F800F701F70B54
:100110008728F80B86287B30F700F70B8D28800B9B
:100120008428080057189628871197288715AB113F
:100130002B08831687008312D718A0280712A1283E
:1001400007162B122B088316870083125719AA282B
:100150008712AB288716AB122B08831687008312F1
:10016000D719B4288813B528881783168813000078
:1001700083120915831609110330F700F70BBE2807
:10018000831209118316091183120800D801AB15D7
:100190002B08831687000030831287190130D8049A
:1001A0002B162B088316870000308312071A0130A4
:1001B000F7000310F70D7708D804AB162B08831649
:1001C000870000308312871A0130F700F70DF70D12
:1001D000FC30F7057708D80483168817003083129F
:1001E000881B0130F700F70DF70DF70DF830F70514
:1001F0007708D8045808F800080083160911091078
:10020000891083120910831609108715071687169F
:100210008817831289148316891000008312091528
:100220008316091100008312C6207808D70009112F
:10023000831609110000831209158316091120295C
:10024000212900008312C6207808D60009118316E0
:1002500009118312AB112B088316870083122B120E
:100260002B08831687008312AB122B088316870096
:1002700088138312570EF700F030F70577085604FD
:10028000F8007808D600D61F472983160529D40818
:10029000031D4C2909104D2909148316091000006B
:1002A00083128910831689100000831209118316A6
:1002B00009118312550ED6000F30D6055608D70007
:1002C000922055080F39D600D70092200800283018
:1002D000CD000C30CE000130CF000630D000091127
:1002E00083160911831209108316091083128910CD
:1002F000831689108312AB112B0883168700831293
:100300002B122B08831687008312AB122B0883163F
:10031000870088130911091089100F308312D1004A
:100320007E200130CC004C08033C031C9F29033085
:10033000D70092200530D1007E20CC0A93290230CC
:10034000D70092200530D1007E20CC014C08033C20
:10035000031CB6294D304C07840083130008D100DC
:10036000D4015108D500FD20CC0AA6298A110A1211
:10037000852B510BBC29BF294030D200C029D201A6
:1003800001305002D20752088038D300D4015308FC
:10039000D500FD2008004F080C3A0319D629063A6B
:1003A0000319DE29023A0319E429E929D4010130AD
:1003B000D500FD200230D1007E20EE290130D00092
:1003C0000230D100B921EE29D4011030D500FD2032
:1003D000EE290130D4004F08D500FD2008000B089D
:1003E000CC008B13831603178C170C14000000002D
:1003F00083120313CC1B8B1703170C087F390319C7
:10040000432A0313CC0003170D080313CD00031771
:100410000F080313CE004C08CF00CB214D08031763
:100420008D0003134E0803178F0003130B08CF0032
:100430008B13831603178C170C1400000000831213
:100440000313CF1B8B1703170C0D0E0D7F390319E8
:10045000432A0313CC0003170D080313CD00031721
:100460000F080313CE004C08CF00CB214D08031713
:100470008D0003134E0803178F008D0A03198F0A8E
:100480000313EF29031703138A110A12932B5F300A
:1004900084008313000803195A2A0630F800F70174
:1004A000F70B502AF80B4F2A7B30F700F70B562A30
:1004B000800B4D2A08004A08840083134B188317C9
:1004C00050088000840A8001CA0A0319CB0A080078
:1004D0000B08CD008B13831603178C170C14000028
:1004E000000083120313CD1B8B1703189F2A0317D9
:1004F0000C087F390313CD0003170D080313CE003A
:1005000003170F080313CF004D08D0005B224E08DD
:1005100003178D0003134F0803178F0003130B08F5
:10052000D0008B13831603178C170C1400000000E7
:1005300083120313D01B8B17CC0B9F2ABE2A0317E1
:100540000C0D0E0D7F390313CD0003170D08031397
:10055000CE0003170F080313CF004D08D0005B2215
:100560004E0803178D0003134F0803178F008D0AE1
:1005700003198F0A03100313CC0B682A08004F08D5
:10058000F8014E020318C72A4E08F700D32AF701D4
:100590000830D000CE0DF70D4F0877020318F70092
:1005A000F80DD00BCA2A080078084C08CE00643039
:1005B000CF00BF227708CC0078083030031DE72A2F
:1005C000CD1CEE2ACD19EE2A4D1A2030EA2ACD1183
:1005D0004D124D14F8077808D0005B224C08CE006D
:1005E0000A30CF00BF227708CC0078083030031DD6
:1005F000FF2ACD19032B4D1C032B4D1A2030F80771
:100600007808D0005B223030CC074C08D0005B2249
:100610000800800803191E2BCD010408CC004D10E2
:10062000831B4D140008CF00CB214C08840083139A
:100630004D188317840A0319850A092B0800C50879
:100640000319292BC91C292B83160810831208149F
:100650002D2B83160810831208108A110A12702C91
:10066000C50803194A2B491D4A2B46082D02031CB5
:100670003C2B0130F800422B2D084702031C422B73
:100680000030F800F80803194A2B831688108312EB
:1006900088144E2B83168810831288108A110A1230
:1006A000712C03081F398300FF30AB00C5010F30E8
:1006B000C6000A30C700C8014910C9144915CB014A
:1006C000CA0183161F149F141F159F1107309C0029
:1006D0008313071087100711871107128712FF3045
:1006E00086008801831288018316851405158515F7
:1006F00005168516091089140911081083120810AF
:10070000831688108312881067290C30CF00CB2104
:100710000130D000D100B921683003178D000030BE
:100720008F000313EF298B100B1683160113C030B3
:1007300083128B040230CC00FA30DF004722CC0B4E
:100740009C2BCF01D001D101D201D301831605101A
:10075000831205146330F700F70BAC2BAF2B051099
:100760001930DF0047220514831605146330F700A3
:10077000F70BB82BBB2B8312051CC22B0030F800E3
:10078000122CC42B051CC22B6330F700F70BC62BB1
:10079000C92B0518CF2B0030F800122CD12B0518CF
:1007A000CF2BD5015508043C031CFC2BD401540865
:1007B000073C031CFA2B051CDB2B5330F700F70B0F
:1007C000DF2B051CF82B4F3055078400831354088A
:1007D000073CF8000130F700F8080319F32B031069
:1007E000F70DF80BEF2B7708000480000518F62BA7
:1007F000D40AD72BD50AD22B50084F0751075207DE
:10080000D600530856020319082C0030F800122CA9
:100810005108AD005208AE004F08AF005008B000BC
:100820000130F800F80803196F2CCB013130CA00F1
:100830006F3003178D0000308F0003100730031353
:10084000CC0068222F08CC001B30CD00D4222C30E5
:10085000D0005B223008CC001B30CD00D422013008
:10086000D000D100B9213130840083130923253011
:10087000CF00CB21CB013130CA00763003178D0079
:1008800000308F0003100A300313CC0068222D08BB
:10089000CC001B30CD00D4222C30D0005B222E089F
:1008A000CC001B30CD00D4220130D0000230D1006A
:1008B000B9213130840083130923DF30CF00CB21ED
:1008C0004330CF00CB21AD0803196B2C83160811E0
:1008D000831208156F2C83160811831208111F2B21
:0608E000302BA12B630088
:02400E00323F3F
:00000001FF
;PIC16F877A
;CRC=350B  CREATED="19-Nov-22 18:37"
