:1000000000308A00D1280000FF00030E8301A10008
:100010000A08A0008A010408A2007708A300780853
:10002000A4007908A5007A08A600831383128B1D0B
:100030001B280B1836280B1E1F288B1839288C30CC
:100040008400001C25280C183C2822088400230862
:10005000F7002408F8002508F9002608FA0020080F
:100060008A00210E8300FF0E7F0E09008A110A12FA
:100070003F288A110A1265288A110A127E2806086A
:1000800000000B10861B4928C90A4908023C031CC2
:10009000C901061A5328490B4F28C70A5328490893
:1000A000023C0319C80A861A5D28490B5928C70360
:1000B0005D284908023C0319C803061B612801306A
:1000C000CA060B108A110A1225288B1086186D2873
:1000D0000B1206196928C60A7928061979280B1205
:1000E000861870284608013C031C7828C601792828
:1000F000C6030B168B108A110A122528051D8A28A3
:100100000030831688008312081583168800831236
:1001100088169328003083168800831208118316EE
:10012000880083128812851D9B2800308316880062
:1001300083128816A0280030831688008312881244
:10014000051EA82800308316880083120817AD28E2
:1001500000308316880083120813851EB5280030EE
:100160008316880083128815BA2800308316880009
:10017000831288110C108A110A122528C608031947
:10018000C928CA1CC92800308316880083120814A5
:10019000CE28003083168800831208108A110A12B4
:1001A0001C2903081F3983000130AA000830AB0066
:1001B000C6011930C7001430C800C9014A10CA145A
:1001C0004A1583161F149F141F159F1107309C009A
:1001D00083138312AC01FF308316860088018312DB
:1001E00088018316851405158515051685168C1648
:1001F0008312060800000B108B158B100B1683164C
:100200000113C03083128B0483160C14B530831293
:1002100090008E018F018E010000C6080319162977
:10022000003083168800831208141B2900308316BF
:0C023000880083120810BE280D2963000E
:02400E00323F3F
:00000001FF
;PIC16F877A
;CRC=5AFA  CREATED="14-Nov-22 16:41"
