:1000000003308A00152B0000FF00030E8301A100BE
:100010000A08A0008A010408A2007708A300780853
:10002000A4007908A5007A08A60003170D08031399
:10003000A70003170F080313A80003170C080313E6
:10004000A90003170E080313AA00831383128B1D44
:100050002B280B1856280B1E2F288B1859288C304C
:100060008400001C35280C185C2822088400230812
:10007000F7002408F8002508F9002608FA002708E8
:1000800003178D000313280803178F000313290893
:1000900003178C0003132A0803178E00031320088C
:1000A0008A00210E8300FF0E7F0E09008A110A12BA
:1000B00067288A110A1286288A110A12B8280A109B
:1000C0008A100A11820728340C34013406340608D9
:1000D00000000B10061E70288316081083120814E7
:1000E000861E76288316881083128814061F7C28A3
:1000F0008316081183120815861F82288316081399
:10010000831208170B108A110A12352886189128B5
:1001100034084F3C031891288316081210308312BC
:10012000880606199828831608121030831288064C
:1001300085189F2883160812103083128806051927
:10014000A628831608121030831288068519AD2858
:1001500083160812103083128806051AB4288316F5
:1001600008121030831288068B108A110A12352863
:10017000061EBF288316081083120814C32883168E
:10018000081083120810861ECA288316881083124E
:100190008814CE288316881083128810061FD5284D
:1001A0008316081183120815D928831608118312A3
:1001B0000811861FE0288316081383120817E42805
:1001C00083160813831208130C108A110A1235289B
:1001D000D2224122492747104424D41831005130FB
:1001E000840083130008031902290630F800F70180
:1001F000F70BF828F80BF7287B30F700F70BFE28F1
:10020000800BF52808000830F80000008711AB11BA
:100210002B088316870000008312DE0D0712031CD3
:1002200017292B162B08831687001B2983122B12E4
:100230002B088316870000008312AB152B0883164A
:1002400087008312871D2229F80B052900008711DA
:10025000AB112B0883168700000083122B162B0886
:1002600083168700000000008312AB152B0883164D
:1002700087008312871D3A29F8010000071A7814B5
:100280008711AB112B0883168700831207122B12DC
:100290002B0883168700831208005C08003A0319B4
:1002A0005529013A031978299C295B0EF700F03093
:1002B000F70577083004DD00DE00032100005B0E47
:1002C000F700F030F705770804383004DD00DE0071
:1002D00003210330F700F70B6B295B0EF700F030BA
:1002E000F7057708FB393004DD00DE0003219C2987
:1002F0005B0EF700F030F705770801383004DD00B9
:10030000DE00032100005B0EF700F030F7057708F0
:10031000013804383004DD00DE0003210330F7002B
:10032000F70B90295B0EF700F030F70577080138DE
:100330003004DD00DE00032108002B162B08831695
:10034000870000008312AB152B088316870000007E
:10035000831207122B122B088316870000008312CA
:100360008711AB112B088316870083122C08DE003F
:100370000321580EDA000F30DA055A08DB0059085D
:10038000DC004D2158080F39DA00DB005908DC0089
:100390004D212B122B088316870000008312AB150A
:1003A0002B08831687008312871DD4290000D829C3
:1003B00000002B162B08831687000000831208000C
:1003C0000130D800D9019D210230D100EF20013049
:1003D000AF0008004D08AC004F08AD004E08AE005D
:1003E0000B138B138B1BF1293230D100EF202B160E
:1003F0002B088316870000008312AB152B08831689
:1004000087000000831207122B122B088316870027
:10041000000083128711AB112B088316870083120B
:100420002C08DE000321DB01DC014D210F30D1005F
:10043000EF200130D0005008033C031C282A033071
:10044000DB00DC014D210530D100EF20D00A1B2A52
:100450000230DB00DC014D210530D100EF202B12F2
:100460002B088316870000008312AB152B08831618
:1004700087008312871D3A2A00003E2A00002B16AF
:100480002B088316870000008312D0015008033C1C
:10049000031C552A50085F20D100D800D9019D21A6
:1004A0000530D100EF20D00A462AE021C0308B046D
:1004B0000800CD0803195F2A0830B000602AB00197
:1004C000080052082D020318682A2D08D3006A2A52
:1004D0005208D3005308013A0319782A033A031942
:1004E0007A2A013A03197D2A073A0319802A832AB6
:1004F000D501842A4030D500842A1430D500842ABE
:100500005430D500842AD50151082E0203188B2AB5
:100510002E08D4008D2A5108D4000130540255070A
:10052000D60056088038D700D800D9019D21080090
:1005300050080C3A0319A32A063A0319A52A023ACD
:100540000319B22AB72AE021BC2AAF0A2F082D02CC
:100550000318AC2A0130AF000130D1002F08D200BF
:100560006122BC2A1030D800D9019D21BC2A500834
:10057000D8000130D9009D2108000B08CD008B1355
:10058000831603178C170C1400000000831203134A
:10059000CD1B8B1703170C087F390319112B03137D
:1005A000CD0003170D080313CE0003170F08031324
:1005B000CF004D08D00098224E0803178D0003137A
:1005C0004F0803178F0003130B08D0008B138316FB
:1005D00003178C170C140000000083120313D01BA8
:1005E0008B1703170C0D0E0D7F390319112B0313F5
:1005F000CD0003170D080313CE0003170F080313D4
:10060000CF004D08D00098224E0803178D00031329
:100610004F0803178F008D0A03198F0A0313BD2A91
:10062000031703138A110A12532B03081F3983007F
:10063000FF30AB000130AF000830B000CA01CC0180
:10064000CB0183161F149F141F159F1107309C00A8
:1006500083138312B101FF30831686008801831251
:1006600088014E30CD001030CE000230CF00EA219C
:100670000130CD0059224030CD001030CE00023084
:10068000CF00EA210130CD0059220C30D000982251
:100690000130D100D2006122E83003178D00003014
:1006A0008F000313BD2A0230CD00FA30D100EF20B5
:1006B000CD0B552B0C30D0009822060800000B10F3
:1006C0008B100B1683160113C03083128B04831614
:1006D0000C14B530831290008E018F018E01000042
:0406E000702B630018
:02400E00323F3F
:00000001FF
;PIC16F877A
;CRC=542B  CREATED="12-Nov-22 14:20"
