:1000000002308A00F92A0000D222412249274710F3
:100010004424D4183100C427A0206D1DA0127516E9
:10002000A53A00004E24C922541044183A10A53AAB
:10003000AC127500403084008313000803192D288A
:100040000630F800F701F70B2328F80B22287B3045
:10005000F700F70B2928800B2028080046183228C3
:1000600007123328071620122008831687008312F0
:10007000C6183C2887123D288716A0122008831630
:1000800087008312461946280713472807172013AD
:100090002008831687008312C61950288713512819
:1000A0008717A01320088316870000008312071407
:1000B00020102008831687000330F700F70B5E2816
:1000C000831207102010200883168700831208006F
:1000D000C701201620088316870000308312071AF4
:1000E0000130C704A0162008831687000030831251
:1000F000871A0130F7000310F70D7708C70420179F
:1001000020088316870000308312071B0130F70098
:10011000F70DF70DFC30F7057708C704A017200886
:100120008316870000308312871B0130F700F70D1C
:10013000F70DF70DF830F7057708C7044708F80002
:100140000800201020088316870083122011200841
:10015000831687008312A01020088316870083125D
:100160000711201120088316870007168716071726
:10017000871783128714A0102008831687000000B9
:1001800083120714201020088316870000008312B2
:1001900068207808C6000710201020088316870002
:1001A0000000831207142010200883168700D82827
:1001B000D9280000831268207808C5000710201095
:1001C00020088316870083122012200883168700D8
:1001D0008312A012200883168700831220132008A0
:1001E000831687008312A0132008831687008312CA
:1001F000460EF700F030F70577084504F800780858
:10020000C500C51F05298316B528C308031D0A2983
:1002100007110B29071520112008831687000000FD
:1002200083128710A0102008831687000000831215
:10023000071020102008831687008312440EC50083
:100240000F30C5054508C6002E2044080F39C500EB
:10025000C6002E2008002830BC000C30BD00013044
:10026000BE000630BF00071020102008831687004C
:10027000831207112011200883168700831287102C
:10028000A0102008831687008312201220088316EE
:1002900087008312A0122008831687008312201380
:1002A0002008831687008312A01320088316870076
:1002B0008312201020088316870083122011200843
:1002C000831687008312A0102008831687000F3042
:1002D0008312C0001A200130BB003B08033C031C02
:1002E00079290330C6002E200530C0001A20BB0A31
:1002F0006D290230C6002E200530C0001A20BB0137
:100300003B08033C031C90293C303B0784008313CB
:100310000008C000C3014008C400A120BB0A802916
:100320008A110A120A2B400B962999294030C100E4
:100330009A29C10101303F02C10741088038C2003B
:10034000C3014208C400A12008003E080C3A03196A
:10035000B029063A0319B829023A0319BE29C3295C
:10036000C3010130C400A1200230C0001A20C829F6
:100370000130BF000230C0009321C829C3011030F2
:10038000C400A120C8290130C3003E08C400A12038
:1003900008000B08BB008B13831603178C170C1473
:1003A0000000000083120313BB1B8B1703170C08FC
:1003B0007F3903191D2A0313BB0003170D0803130C
:1003C000BC0003170F080313BD003B08BE00A521A6
:1003D0003C0803178D0003133D0803178F00031318
:1003E0000B08BE008B13831603178C170C14000028
:1003F000000083120313BE1B8B1703170C0D0E0D89
:100400007F3903191D2A0313BB0003170D080313BB
:10041000BC0003170F080313BD003B08BE00A52155
:100420003C0803178D0003133D0803178F008D0A46
:1004300003198F0A0313C929031703138A110A1218
:10044000182B4E308400831300080319342A063019
:10045000F800F701F70B2A2AF80B292A7B30F7005E
:10046000F70B302A800B272A080021088400831309
:10047000221883173F088000840A8001A10A03190B
:10048000A20A08000B08BC008B13831603178C17F5
:100490000C140000000083120313BC1B8B170318FD
:1004A000792A03170C087F390313BC0003170D08C2
:1004B0000313BD0003170F080313BE003C08BF0061
:1004C00035223D0803178D0003133E0803178F00E4
:1004D00003130B08BF008B13831603178C170C1420
:1004E0000000000083120313BF1B8B17BB0B792A7C
:1004F000982A03170C0D0E0D7F390313BC00031748
:100500000D080313BD0003170F080313BE003C08BA
:10051000BF0035223D0803178D0003133E08031763
:100520008F008D0A03198F0A03100313BB0B422A95
:1005300008003E08F8013D020318A12A3D08F70013
:10054000AD2AF7010830BF00BD0DF70D3E08770258
:100550000318F700F80DBF0BA42A080078083B0821
:10056000BD006430BE0099227708BB0078083030A7
:10057000031DC12ABC1CC82ABC19C82A3C1A203039
:10058000C42ABC113C123C14F8077808BF0035227D
:100590003B08BD000A30BE0099227708BB007808EE
:1005A0003030031DD92ABC19DD2A3C1CDD2A3C1A37
:1005B0002030F8077808BF0035223030BB073B08F1
:1005C000BF003522080080080319F82ABC0104087E
:1005D000BB003C10831B3C140008BE00A5213B0857
:1005E000840083133C188317840A0319850AE32ABD
:1005F000080003081F398300FF30A000A201A101F9
:1006000083161F149F141F159F1107309C0083131E
:1006100083122B290C30BE00A5210130BF00C00081
:100620009321043003178D0000308F000313C92974
:100630000230BB00FA30CE002122BB0B1A2B023055
:10064000BB00FA30CE002122BB0B212B0C30BE00A8
:10065000A521BE01BF01C001C101C2018316061060
:10066000831206146330F700F70B342B372B061078
:100670001930CE0021220614831606146330F700C9
:10068000F70B402B432B8312061C4A2B0030F8003B
:100690009A2B4C2B061C4A2B6330F700F70B4E2B82
:1006A000512B0618572B0030F8009A2B592B06189F
:1006B000572BC4014408043C031C842BC30143088A
:1006C000073C031C822B061C632B5330F700F70BEF
:1006D000672B061C802B3E3044078400831343089D
:1006E000073CF8000130F700F80803197B2B0310D2
:1006F000F70DF80B772B77080004800006187E2B87
:10070000C30A5F2BC40A5A2B3F083E074007410724
:10071000C500420845020319902B0030F8009A2BBF
:100720004008A3004108A4003E08A5003F08A60019
:100730000130F800F8080319EB2BA2012730A100C3
:100740000B3003178D0000308F00031007300313A8
:10075000BB0042222508BB001B30BC00AE222C305F
:10076000BF0035222608BB001B30BC00AE22013082
:10077000BF00C0009321273084008313E32225307B
:10078000BE00A521A2012730A100123003178D0061
:1007900000308F0003100A300313BB0042222308ED
:1007A000BB001B30BC00AE222C30BF003522240819
:1007B000BB001B30BC00AE220130BF000230C000C5
:1007C0009321273084008313E322DF30BE00A5216C
:1007D0004330BE00A5210230BB00FA30CE002122FA
:0807E000BB0BED2B292B63007C
:02400E00733FFE
:00000001FF
;PIC16F877A
;CRC=0F46  CREATED="30-Oct-22 23:42"
