:1000000000308A0052280000FF00030E8301A10087
:100010000A08A0008A010408A2007708A300780853
:10002000A4007908A5007A08A600831383128B1D0B
:100030001B280B182C28220884002308F70024080A
:10004000F8002508F9002608FA0020088A00210E89
:100050008300FF0E7F0E09008A110A122F2806085E
:1000600000000B10061A392883160810013083127D
:100070008806861A402883160810013083128806E5
:10008000061B472883160810013083128806861B3A
:100090004E28831608100130831288060B108A112F
:1000A0000A121B2803081F39830083161F149F148C
:1000B0001F159F1107309C008313FF30860001300D
:1000C000880083128801060800000B108B15C030D1
:0600D0008B0469286300A7
:02400E00323F3F
:00000001FF
;PIC16F877A
;CRC=6ACB  CREATED="11-Nov-22 14:03"
