:1000000005308A00742D0000FF00030E8301A1005B
:100010000A08A0008A010408A2007708A300780853
:10002000A4007908A5007A08A60003170D08031399
:10003000A70003170F080313A80003170C080313E6
:10004000A90003170E080313AA00831383128B1D44
:100050002B280B1860280B1E2F288B1863288C3038
:100060008400801E35288C1A66288C308400001C81
:100070003B280C1869288B1E3F280B196C28220876
:1000800084002308F7002408F8002508F900260852
:10009000FA00270803178D000313280803178F00A1
:1000A0000313290803178C0003132A0803178E0073
:1000B000031320088A00210E8300FF0E7F0E090023
:1000C0008A110A1281288A110A1211298A110A1228
:1000D000B3288A110A123D298A110A127F294B0B73
:1000E0007328C90A77284B08023C0319CA0A08007A
:1000F0004B0B7C28C90380284B08023C0319CA0318
:100100000800060800000B10861B8D28861F862815
:10011000CB0A4B08023C031CCB01061A9828061E8A
:100120008F28CB08031D97280130AB0698286F2035
:10013000861AA328861E9A28CB08031DA2280230FF
:10014000AB06A3287820061BAF28061FA528203061
:10015000AB06AB1AAF2883160910831209100B10D7
:100160008A110A123F288C1EB3281A08AF002F08E4
:10017000733A0319E628073A0319EC28133A0319CE
:10018000EE28563A0319F028033A0319F228013AE7
:100190000319F428073A0319F628013A0319F82835
:1001A000033A0319FA28013A031902290F3A0319ED
:1001B0000429013A03190629093A03190829513A71
:1001C00003190A29033A03190C290D29CB0A4B08F4
:1001D000023C031CCB010D296F200D2978200D292D
:1001E0002B140D292B100D29AB140D29AB100D2943
:1001F000AB160D29AB12091C0129831609108312B5
:1002000009100D292B150D292B110D29AB150D29C1
:10021000AB110D292B160D292B128C128A110A12E3
:100220003F28861822290B12AB1E1E29831609109F
:1002300083120914AE01AD018B16810106191E2926
:10024000C80A3829061938290B12AB1E2F29831624
:10025000091083120914AE01AD018B1681018618B5
:100260002F294808013C031C3729C8013829C80335
:100270000B168B108A110A123F28051D412985197A
:1002800043292B1744292B13051A4D292B1E4D29C1
:1002900083168910831289145129831689108312B9
:1002A0008910851A6029AB172B1D5B2983168813CB
:1002B000831288175F298316881383128813652990
:1002C000AB13831688138312881307186B29071C36
:1002D00067290430AB0687187129871C6D290830FF
:1002E000AB0607197729071D73291030AB068E015D
:1002F0008F018E0100000C108A110A123F28AD0AEE
:100300000319AE0A2D08FC3C031D95292E08083C54
:10031000031D9529AE01AD01AB1E9529091C952938
:1003200083160910831209108B1281010B118A1197
:100330000A123F28CD3C2028F237EA32633AA0194E
:100340000000C437A0206D1DA0127516A53A00004C
:100350004E34E9327410C4373A10A53AAC12750025
:10036000D3374E1D25197500C2306F10C437EE33D8
:10037000BA2766332000C2306F10C437EE33BA2775
:100380006E100001541DA012751620223A10A53AD5
:10039000A0266F32651DA0127500D530723A3A0062
:1003A0002010C4252027E834653A20226F10C2307F
:1003B00074004E34E93274226F22EB2FC230741D68
:1003C000A0127500541DA012751620223A10A53AED
:1003D000A0266F32651DA01275002010C4252027AD
:1003E000E834653A20226F10D43074004E34E9327C
:1003F00074226F22EB2FD430741DA0127500541D8F
:10040000A012751620223A10A53AA0266F32651D5B
:10041000A0127500623084008313000803191D2A9E
:100420000630F800F701F70B132AF80B122A7B307D
:10043000F700F70B192A800B102A08005B18222AF4
:100440008712232A8716AC122C0883168700831282
:10045000DB182C2A07122D2A07162C122C088316BB
:10046000870083125B19362A8811372A881583166C
:1004700088118312DB193E2A08113F2A08158316BA
:100480000811000083120816831608120330F700C3
:10049000F70B482A831208128316081283120800E9
:1004A000DC01AC162C088316870000308312871AF3
:1004B0000130DC042C162C088316870000308312D0
:1004C000071A0130F7000310F70D7708DC048316D4
:1004D00088150030831288190130F700F70DF70DE9
:1004E000FC30F7057708DC0483160815003083120A
:1004F00008190130F700F70DF70DF70DF830F70583
:100500007708DC045C08F80008008316081208135A
:100510008812831208138316081387160716881586
:100520000815831288168316881200008312081695
:10053000831608120000831250227808DB0008128C
:100540008316081200008312081683160812A82AC0
:10055000A92A0000831250227808DA0008128316B4
:1005600008128312AC122C088316870083122C12F7
:100570002C08831687008811081183125B0EF70080
:10058000F030F70577085A04F8007808DA00DA1F27
:10059000CB2A83168D2AD808031DD02A0813D12A06
:1005A0000817831608130000831288128316881216
:1005B000000083120812831608128312590EDA0003
:1005C0000F30DA055A08DB001E2259080F39DA000D
:1005D000DB001E2208002830D0000C30D100013092
:1005E000D2000630D30008128316081283120813B3
:1005F0008316081383128812831688128312AC1292
:100600002C088316870083122C122C08831687006F
:10061000881108110812081388120F308312E200A3
:100620000A220130CF004F08033C031C1F2B03306C
:10063000DB001E220530E2000A22CF0A132B023013
:10064000DB001E220530E2000A22CF014F08033CE6
:10065000031C362B50304F07840083130008D4004E
:10066000D8015408D9008522CF0A262B0800550B43
:100670003A2B3D2B4030D6003E2BD60101305402A0
:10068000D60756088038D700D8015708D9008522E8
:10069000080053080C3A0319542B063A03195C2B33
:1006A000023A0319622B672BD8010130D900852249
:1006B0000230E2000A226C2B0130D4000230D50057
:1006C00037236C2BD8011030D90085226C2B0130D8
:1006D000D8005308D900852208000B08CF008B13DF
:1006E000831603178C170C140000000083120313E9
:1006F000CF1B8B1703170C087F390319C12B03136A
:10070000CF0003170D080313D00003170F080313BE
:10071000D1004F08D3004923500803178D0003135D
:10072000510803178F0003130B08D2008B13831695
:1007300003178C170C140000000083120313D21B44
:100740008B1703170C0D0E0D7F390319C12B0313E3
:10075000CF0003170D080313D00003170F0803136E
:10076000D1004F08D3004923500803178D0003130D
:10077000510803178F008D0A03198F0A03136D2B7D
:100780000317031308000B08D0008B1383160317FD
:100790008C170C140000000083120313D01B8B175E
:1007A0000318FA2B03170C087F390313D000031723
:1007B0000D080313D10003170F080313D2005008CC
:1007C000D3004923510803178D0003135208031760
:1007D0008F0003130B08D3008B13831603178C179A
:1007E0000C140000000083120313D31B8B17CF0BD4
:1007F000FA2B192C03170C0D0E0D7F390313D000A3
:1008000003170D080313D10003170F080313D200B9
:100810005008D3004923510803178D0003135208D1
:1008200003178F008D0A03198F0A03100313CF0BD0
:10083000C32B08005208F80151020318222C51085A
:10084000F7002E2CF7010830D300D10DF70D520818
:1008500077020318F700F80DD30B252C0800780851
:100860004F08D1006430D2001A247708CF007808EE
:100870003030031D422CD01C492CD019492C501A61
:100880002030452CD01150125014F8077808D300AE
:1008900049234F08D1000A30D2001A247708CF002C
:1008A00078083030031D5A2CD0195E2C501C5E2C59
:1008B000501A2030F8077808D30049233030CF078A
:1008C0004F08D30049230800C80803196E2C2B1CBD
:1008D0006E2C8316081083120814722C83160810CD
:1008E000831208108A110A12CE2E49083002031C06
:1008F0007B2C0130CC0030084A020318CC014C0894
:10090000F8000800C8080319902CAB1C902C752423
:10091000F8080319902C8316881083128814942CDD
:1009200083168810831288108A110A12CF2EAB1FEB
:100930009B2CAB1A9D2C2B1FA22C83160911831202
:100940000915A62C83160911831209118A110A129E
:10095000D02EAB1FAF2C7524F808031DB52C2B1B14
:10096000B52CAB1FBC2CAB1DBC2CAC112C088316BA
:10097000870083128715C22CAC112C0883168700C0
:10098000831287118A110A12D12E4D088400831315
:100990004E18831753088000840A8001CD0A03197A
:1009A000CE0A080078084F08D1006430D2001A241B
:1009B0007708CF0078083030031DE52CD01CEC2CD4
:1009C000D019EC2C501A2030E82CD01150125014B1
:1009D000F8077808D300C5244F08D1000A30D200A8
:1009E0001A247708CF0078083030031DFD2CD01969
:1009F000012D501C012D501A2030F8077808D30023
:100A0000C5243030CF074F08D300C52408000B0899
:100A1000D0008B13831603178C170C1400000000F2
:100A200083120313D01B8B1703183E2D03170C08DA
:100A30007F390313D00003170D080313D1000317E8
:100A40000F080313D2005008D300C5245108031720
:100A50008D000313520803178F0003130B08D300F4
:100A60008B13831603178C170C14000000008312DD
:100A70000313D31B8B17CF0B3E2D5D2D03170C0DCE
:100A80000E0D7F390313D00003170D080313D10097
:100A900003170F080313D2005008D300C5245108D0
:100AA00003178D000313520803178F008D0A0319D3
:100AB0008F0A03100313CF0B072D080080080319BA
:100AC000732DD0010408CF005010831B5014000870
:100AD000D30049234F088400831350188317840AD6
:100AE0000319850A5E2D080003081F3983002B14A3
:100AF000AB142B15AB152B16813083169900A6303D
:100B00009800903083129800FF30AC00AE01AD0128
:100B1000C8011630C9001230CA00CB01AB12013037
:100B2000CC002B13AB13CE01CD0183161F149F14E1
:100B30001F159F1107309C0083138711071287121E
:100B4000FF308600081088100811881108128812DA
:100B500008138813831288018316850009108910F1
:100B6000091183128901EB220C30D3004923013093
:100B7000D400D50037239A3003178D0001308F0041
:100B800003136D230430CF00AF30E2000A22CF0BF5
:100B9000C42D0C30D300492383168C16C030831229
:100BA0008B04060800000B108B158B100B16831698
:100BB00001130C14B530831290008E018F018E0149
:100BC000000083160108C0390738810083128101B3
:100BD000EB22CB08031D1B2F0C30D3004923D2017D
:100BE000D301D401D501D601831605108312051453
:100BF0006330F700F70BFA2DFD2D05101930E200D8
:100C00000A220514831605146330F700F70B062E2D
:100C1000092E8312051C102E0030F800602E122EB3
:100C2000051C102E6330F700F70B142E172E051835
:100C30001D2E0030F800602E1F2E05181D2ED80125
:100C40005808043C031C4A2ED7015708073C031CD4
:100C5000482E051C292E5330F700F70B2D2E051CAE
:100C6000462E52305807840083135708073CF8007B
:100C70000130F700F8080319412E0310F70DF80BA7
:100C80003D2E7708000480000518442ED70A252E33
:100C9000D80A202E5308520754075507D900560882
:100CA00059020319562E0030F800602E5408B00087
:100CB0005508B1005208B2005308B3000130F800E3
:100CC000F8080319632E0130D400D5003723A13072
:100CD00003178D0001308F00031007300313CF007E
:100CE000C3233208CF001B30D0002F242C30D30078
:100CF00049233308CF001B30D0002F242530D300E8
:100D000049230130D4000230D5003723A83003171F
:100D10008D0001308F0003100A300313CF00C3236E
:100D20003008CF001B30D0002F242C30D3004923B3
:100D30003108CF001B30D0002F24DF30D3004923EF
:100D40004330D30049230F30D4000130D50037237E
:100D5000B03003178D0001308F00031004300313EF
:100D6000CF00C3234808CF001130D0002F24AB1A86
:100D7000C62E1530D4000130D5003723B430031708
:100D80008D0001308F0003136D23CD2EBB30031770
:100D90008D0001308F0003136D23642C822C972C5F
:100DA000A92C1530D4000230D5003723CE013430C1
:100DB000CD005430D300C5243A30D300C5242030B0
:100DC000D300C5244908CF001B30D000D224C43042
:100DD00003178D0001308F00031405300313CF007B
:100DE00007254A08CF001B30D000D224C830031793
:100DF0008D0001308F00031007300313CF0007254B
:100E00004B08CF001B30D000D22434308400831331
:100E10005E252330D4000130D5003723CD300317B1
:100E20008D0001308F0003136D232F08D300492359
:100E30003230E2000A224B0B812F0C30D3004923C1
:100E40000130D400D5003723D03003178D00013096
:100E50008F0003136D230130D4000230D5003723F7
:100E6000CE013430CD00D93003178D0001308F0012
:100E700003100F300313CF0007254908CF001B30A4
:100E8000D000D2243430840083135E251530D40082
:100E90000230D5003723CE013430CD005430D3009A
:100EA000C5243A30D300C5242030D300C5244908D6
:100EB000CF001B30D000D224E43003178D00013066
:100EC0008F00031405300313CF0007254A08CF0015
:100ED0001B30D000D224E83003178D0001308F0082
:100EE000031007300313CF0007254B08CF001B303A
:100EF000D000D2243430840083135E253230E200E7
:100F00000A224B08023C031DE92F0C30D300492371
:100F10000130D400D5003723ED3003178D000130A8
:100F20008F0003136D230130D4000230D500372326
:100F3000CE013430CD00F63003178D0001308F0024
:100F400003100F300313CF0007254A08CF001B30D2
:100F5000D000D2243430840083135E251530D400B1
:100F60000230D5003723CE013430CD005430D300C9
:100F7000C5243A30D300C5242030D300C524490805
:100F8000CF001B30D000D224013003178D00023077
:100F90008F00031405300313CF0007254A08CF0044
:100FA0001B30D000D224053003178D0002308F0093
:100FB000031007300313CF0007254B08CF001B3069
:100FC000D000D2243430840083135E253230E20016
:060FD0000A22E82D630077
:02400E00323F3F
:00000001FF
;PIC16F877A
;CRC=4B5E  CREATED="11-Jan-23 10:34"
